:100000000C9462000C945D060C9436060C948A00E5
:100010000C948A000C948A000C948A000C948A0038
:100020000C948A000C9484060C948A000C948A0028
:100030000C948A000C948A000C948A000C948A0018
:100040000C9494050C948A000C9404060C94DE0520
:100050000C948A000C948A000C948A000C948A00F8
:100060000C948A000C948A000000000024002700F1
:100070002A0000000000250028002B0000000000DE
:1000800023002600290004040404040404040202DA
:100090000202020203030303030301020408102007
:1000A0004080010204081020010204081020000012
:1000B0000008000201000003040700000000000027
:1000C0000000090811241FBECFEFD8E0DEBFCDBF6E
:1000D00011E0A0E0B1E0E6E4F5E102C005900D9288
:1000E000AA31B107D9F721E0AAE1B1E001C01D9220
:1000F000A93FB207E1F710E0C2E6D0E004C02197C3
:10010000FE010E94960AC136D107C9F70E94F60681
:100110000C94A10A0C940000CF92DF92EF92FF9210
:100120000F931F93CF93DF936C017A018B01C0E093
:10013000D0E0CE15DF0589F0D8016D918D01D60193
:10014000ED91FC910190F081E02DC6010995892B7C
:1001500011F47E0102C02196ECCFC701DF91CF914F
:100160001F910F91FF90EF90DF90CF900895089529
:1001700080E090E00895FC01538D448D252F30E000
:10018000842F90E0821B930B541710F0CF960895A4
:1001900001970895FC01918D828D981761F0828DF1
:1001A000DF01A80FB11D5D968C91928D9F5F9F73AB
:1001B000928F90E008958FEF9FEF0895FC01918D4D
:1001C000828D981731F0828DE80FF11D858D90E0BA
:1001D00008958FEF9FEF0895FC01918D228D892F57
:1001E00090E0805C9F4F821B91098F73992708953F
:1001F0008CE591E00E94EC0021E0892B09F420E0DD
:10020000822F0895FC01848DDF01A80FB11DA35A30
:10021000BF4F2C91848D90E001968F739927848F26
:10022000A689B7892C93A089B1898C9180648C931D
:10023000938D848D981306C00288F389E02D808108
:100240008F7D80830895EF92FF920F931F93CF933A
:10025000DF93EC0181E0888F9B8D8C8D981305C016
:10026000E889F989808185FD24C0F62E0B8D10E088
:100270000F5F1F4F0F731127E02E8C8DE8120CC0FB
:100280000FB607FCFACFE889F989808185FFF5CFA1
:10029000CE010E940201F1CF8B8DFE01E80FF11D0E
:1002A000E35AFF4FF0820B8FEA89FB8980818062DD
:1002B00007C0EE89FF896083E889F98980818064BD
:1002C000808381E090E0DF91CF911F910F91FF90AB
:1002D000EF900895CF93DF93EC01888D8823C9F0C8
:1002E000EA89FB89808185FD05C0A889B9898C913F
:1002F00086FD0FC00FB607FCF5CF808185FFF2CFDA
:10030000A889B9898C9185FFEDCFCE010E940201A9
:10031000E7CFDF91CF91089580E090E0892B29F01D
:100320000E94F80081110C9400000895833081F040
:1003300028F4813099F08230A1F008958730A9F037
:100340008830B9F08430D1F4809180008F7D03C073
:10035000809180008F7780938000089584B58F7797
:1003600002C084B58F7D84BD08958091B0008F77E1
:1003700003C08091B0008F7D8093B0000895CF932B
:10038000DF93282F30E0F901E255FF4F8491F90106
:10039000E656FF4FD491F901EA57FF4FC491CC23A1
:1003A00091F081110E949601EC2FF0E0EE0FFF1FFB
:1003B000E458FF4FA591B491EC91ED2381E090E0DA
:1003C00021F480E002C080E090E0DF91CF910895B9
:1003D0001F93CF93DF93282F30E0F901E255FF4FB1
:1003E0008491F901E656FF4FD491F901EA57FF4F86
:1003F000C491CC23C9F0162F81110E949601EC2FD5
:10040000F0E0EE0FFF1FEE58FF4FA591B4918FB7AC
:10041000F894111105C09C91ED2FE095E92302C0DD
:10042000EC91ED2BEC938FBFDF91CF911F9108954D
:10043000CF93DF9390E0FC01E656FF4F2491FC013F
:10044000EA57FF4F8491882361F190E0880F991F4C
:10045000FC01E859FF4FC591D491FC01EE58FF4FC4
:10046000A591B491611109C09FB7F8948881209536
:1004700082238883EC912E230BC0623061F49FB7F6
:10048000F8943881822F809583238883EC912E2BDA
:100490002C939FBF06C08FB7F894E8812E2B28833A
:1004A0008FBFDF91CF9108951F93CF93DF93182FC4
:1004B000EB0161E00E941802209711F460E004C093
:1004C000CF3FD10539F461E0812FDF91CF911F91AA
:1004D0000C94E801E12FF0E0E255FF4FE491E330A6
:1004E000F9F048F4E130B9F0E230A1F584B580626A
:1004F00084BDC8BD34C0E730E9F0E83019F1E4301C
:1005000049F580918000806280938000D0938B00B9
:10051000C0938A0024C084B5806884BDC7BD1FC055
:1005200080918000806880938000D0938900C09380
:10053000880015C08091B00080688093B000C0939F
:10054000B3000DC08091B00080628093B000C09372
:10055000B40005C0C038D1050CF0B5CFAFCFDF91E6
:10056000CF911F910895089580914001909141018C
:100570000196909341018093400183E00E94BF0166
:10058000892B31F488E00E94BF01892B31F411C01E
:1005900088E00E94BF01892B61F480914201909113
:1005A0004301A0914401B09145010196A11DB11DE7
:1005B0000BC08091420190914301A0914401B09100
:1005C00045010197A109B10980934201909343012C
:1005D000A0934401B0934501089580913E0190910C
:1005E0003F01019690933F0180933E0182E00E947B
:1005F000BF01892B31F48DE00E94BF01892B31F4BA
:1006000011C088E00E94BF01892B61F480913A01FA
:1006100090913B01A0913C01B0913D010196A11D3B
:10062000B11D0BC080913A0190913B01A0913C011A
:10063000B0913D010197A109B10980933A019093CE
:100640003B01A0933C01B0933D0108958F929F928E
:10065000AF92BF920F931F93CF93DF93CDB7DEB7C7
:10066000A1970FB6F894DEBF0FBECDBF19A24230DE
:1006700008F44AE08E010F5D1F4F842E912CA12CAF
:10068000B12CA50194010E94740AE62FB901CA0198
:1006900001501109EA3014F4E05D01C0E95CD801B1
:1006A000EC93232B242B252B61F70115110571F0F9
:1006B000F80101900020E9F73197AF01401B510B81
:1006C000B8018CE591E00E948C0002C080E090E0CF
:1006D000A1960FB6F894DEBF0FBECDBFDF91CF91CC
:1006E0001F910F91BF90AF909F908F9008950E949F
:1006F0009C0A4F925F926F927F928F929F92AF92DD
:10070000BF92CF92DF92EF92FF920F931F93CF93FE
:10071000DF9300D000D0CDB7DEB7C0904201D090BB
:100720004301E0904401F0904501F7FE14C0E091D0
:100730005C01F0915D010190F081E02D6DE28CE5AE
:1007400091E0099566277727CB016C197D098E0901
:100750009F094AE003C04AE0C701B6010E94260390
:1007600042E050E066E171E08CE591E00E948C008F
:10077000109241011092400110923F0110923E01EF
:1007800060913A0170913B0180913C0190913D0153
:100790000E9452099B01AC010E94370826E53EE009
:1007A00049E450E40E94070A9B01AC010E9437080B
:1007B0002BEA3AEA46EA52E40E94070A20E030E0D7
:1007C00043E454E40E94A808609336017093370113
:1007D000809338019093390110923A0110923B01B5
:1007E00010923C0110923D016091420170914301D1
:1007F00080914401909145010E9452099B01AC01F6
:100800000E94370826E53EE049E450E40E94070ACA
:100810009B01AC010E9437082BEA3AEA46EA52E40F
:100820000E94070A20E030E043E454E40E94A80854
:1008300060933201709333018093340190933501BA
:10084000109242011092430110924401109245010E
:100850002091360130913701409138015091390192
:1008600060E070E080EA91E40E9436084B015C0190
:100870004090220150902301609024017090250146
:1008800026E535ED42E852E40E94070A6B017C013F
:1008900025E535E547E352ECC301B2010E94070AA2
:1008A0009B01AC01C701B6010E9437086B017C01B6
:1008B0002BEA3AEA46E251E460911E0170911F0171
:1008C00080912001909121010E94070A9B01AC01B7
:1008D000C701B6010E94370820911A0130911B010F
:1008E00040911C0150911D010E9437086B017C0151
:1008F00020E030E04FE753E40E94020A18168CF023
:1009000020E030E04FE753ECC701B6010E94A30896
:1009100087FF0DC0C12CD12C3FE7E32E33ECF32E23
:1009200006C0C12CD12C2FE7E22E23E4F22EC09278
:100930001A01D0921B01E0921C01F0921D0140921D
:100940001E0150921F01609220017092210180923D
:10095000220190922301A0922401B0922501C701A7
:10096000B6010E941A0969837A838B839C8309816B
:100970001A8120913201309133014091340150911C
:10098000350160E070E080EA91E40E9436082B01B6
:100990003C0180902E0190902F01A0903001B090EA
:1009A000310120E030E04CE553E40E94070A6B017E
:1009B0007C0120E030E048EC52ECC501B4010E941B
:1009C000070A9B01AC01C701B6010E9437086B0101
:1009D0007C0120E030E0A90160912A0170912B0197
:1009E00080912C0190912D010E94070A9B01AC017E
:1009F000C701B6010E9437082091260130912701D6
:100A000040912801509129010E9437086B017C0117
:100A100020E030E04FE753E40E94020A18168CF001
:100A200020E030E04FE753ECC701B6010E94A30875
:100A300087FF0DC0C12CD12C9FE7E92E93ECF92E36
:100A400006C0C12CD12C8FE7E82E83E4F82EC0928B
:100A50002601D0922701E0922801F092290180928C
:100A60002A0190922B01A0922C01B0922D0140926C
:100A70002E0150922F016092300170923101C70116
:100A8000B6010E941A092B013C017B0110161106C8
:100A90005CF460E080E10E94E80161E08FE00E9488
:100AA000E80169817A810DC061E080E10E94E8017E
:100AB00060E08FE00E94E80169817A81719561951B
:100AC00071098AE00E9454021E141F0454F461E06C
:100AD00082E10E94E80160E083E10E94E801B20146
:100AE0000CC060E082E10E94E80161E083E10E94C5
:100AF000E801662777276419750989E00F900F9040
:100B00000F900F90DF91CF911F910F91FF90EF9079
:100B1000DF90CF90BF90AF909F908F907F906F901D
:100B20005F904F900C9454021F920F920FB60F9249
:100B300011242F933F938F939F93AF93BF938091F3
:100B4000580190915901A0915A01B0915B013091E7
:100B5000570123E0230F2D3720F40196A11DB11D6D
:100B600005C026E8230F0296A11DB11D2093570151
:100B70008093580190935901A0935A01B0935B015F
:100B80008091530190915401A0915501B09156016B
:100B90000196A11DB11D8093530190935401A09320
:100BA0005501B0935601BF91AF919F918F913F91A5
:100BB0002F910F900FBE0F901F9018951F920F92BC
:100BC0000FB60F9211242F933F934F935F936F9320
:100BD0007F938F939F93AF93BF93EF93FF938CE596
:100BE00091E00E940201FF91EF91BF91AF919F911F
:100BF0008F917F916F915F914F913F912F910F90C6
:100C00000FBE0F901F9018951F920F920FB60F9264
:100C100011242F938F939F93EF93FF93E0916C0197
:100C2000F0916D018081E0917201F091730182FD7C
:100C300012C09081809175018F5F8F732091760132
:100C4000821751F0E0917501F0E0E45AFE4F958F64
:100C50008093750101C08081FF91EF919F918F91E9
:100C60002F910F900FBE0F901F9018951F920F920B
:100C70000FB60F9211242F933F934F935F936F936F
:100C80007F938F939F93AF93BF93EF93FF93E091E5
:100C90000201F09103010995FF91EF91BF91AF918E
:100CA0009F918F917F916F915F914F913F912F9184
:100CB0000F900FBE0F901F9018951F920F920FB6B6
:100CC0000F9211242F933F934F935F936F937F93D2
:100CD0008F939F93AF93BF93EF93FF93E0910001A6
:100CE000F09101010995FF91EF91BF91AF919F9113
:100CF0008F917F916F915F914F913F912F910F90C5
:100D00000FBE0F901F9018951F920F920FB60F9263
:100D100011242F933F934F935F936F937F938F9300
:100D20009F93AF93BF93EF93FF9380914C0190916A
:100D30004D018093B20080914F0190915001A0919C
:100D40005101B09152010196A11DB11D80934F0137
:100D500090935001A0935101B093520180914F01A3
:100D600090915001A0915101B091520140914801E0
:100D70005091490160914A0170914B018417950788
:100D8000A607B70710F180914E0181111EC081E0C6
:100D900080934E0180914F0190915001A09151019B
:100DA000B0915201841B950BA60BB70B80934F019A
:100DB00090935001A0935101B0935201E0914601EC
:100DC000F0914701099510924E01FF91EF91BF916B
:100DD000AF919F918F917F916F915F914F913F91D3
:100DE0002F910F900FBE0F901F901895789484B597
:100DF000826084BD84B5816084BD85B5826085BD17
:100E000085B5816085BD80916E00816080936E00A4
:100E10001092810080918100826080938100809196
:100E20008100816080938100809180008160809347
:100E300080008091B10084608093B1008091B00007
:100E400081608093B00080917A00846080937A0002
:100E500080917A00826080937A0080917A0081602C
:100E600080937A0080917A00806880937A00109253
:100E7000C10080918100887F81608093810061E062
:100E800082E10E94180261E083E10E94180261E0A1
:100E900089E00E94180261E080E10E94180261E08E
:100EA0008FE00E94180261E08AE00E94180260E070
:100EB00082E00E94180260E08DE00E94180260E06B
:100EC00083E00E94180260E088E00E941802E0912E
:100ED0006C01F0916D0182E08083E0916801F091F6
:100EE00069011082E0916A01F0916B018FEC8083BF
:100EF00010927401E0917001F091710186E080839D
:100F0000E0916E01F0916F01808180618083E091BA
:100F10006E01F0916F01808188608083E0916E01A5
:100F2000F0916F01808180688083E0916E01F09183
:100F30006F0180818F7D80838DEE92E0909301011F
:100F400080930001809169008C7F816080936900AB
:100F5000E89A84EB92E090930301809302018091E0
:100F60006900837F846080936900E99A8CE090E057
:100F7000A0E0B0E08093480190934901A0934A011A
:100F8000B0934B0189E793E090934701809346012A
:100F9000809170008E7F809370008091B0008C7F74
:100FA0008093B0008091B100877F8093B1008091E1
:100FB000B6008F7D8093B600809170008D7F809306
:100FC00070008091B10084608093B1008091B10085
:100FD0008C7F8093B10086E090E090934D018093E8
:100FE0004C0110924F011092500110925101109239
:100FF000520110924E0180914C0190914D018093CD
:10100000B200809170008160809370000E948C011A
:10101000FDCFECE5F1E01382128288EE93E0A0E0D0
:10102000B0E084839583A683B78388E091E09183C1
:10103000808385EC90E09587848784EC90E09787A7
:10104000868780EC90E0918B808B81EC90E0938B95
:10105000828B82EC90E0958B848B86EC90E0978B72
:10106000868B118E128E138E148E08955058BB27C6
:10107000AA270E944E080C94C8090E94BA0938F0A9
:101080000E94C10920F039F49F3F19F426F40C9412
:10109000B7090EF4E095E7FB0C94B109E92F0E9423
:1010A000D90958F3BA17620773078407950720F028
:1010B00079F4A6F50C94FB090EF4E0950B2EBA2FEB
:1010C000A02D0B01B90190010C01CA01A00111244E
:1010D000FF27591B99F0593F50F4503E68F11A16FA
:1010E000F040A22F232F342F4427585FF3CF46958B
:1010F00037952795A795F0405395C9F77EF41F16AD
:10110000BA0B620B730B840BBAF09150A1F0FF0F76
:10111000BB1F661F771F881FC2F70EC0BA0F621F62
:10112000731F841F48F4879577956795B795F79552
:101130009E3F08F0B0CF9395880F08F09927EE0FE7
:101140009795879508950E948D0908F481E0089588
:101150000E94BC080C94C8090E94C10958F00E9462
:10116000BA0940F029F45F3F29F00C94B1095111FC
:101170000C94FC090C94B7090E94D90968F39923CF
:10118000B1F3552391F3951B550BBB27AA27621783
:101190007307840738F09F5F5F4F220F331F441F90
:1011A000AA1FA9F335D00E2E3AF0E0E832D09150C4
:1011B0005040E695001CCAF72BD0FE2F29D0660FB1
:1011C000771F881FBB1F261737074807AB07B0E8F4
:1011D00009F0BB0B802DBF01FF2793585F4F3AF0FA
:1011E0009E3F510578F00C94B1090C94FC095F3FC7
:1011F000E4F3983ED4F3869577956795B795F79580
:101200009F5FC9F7880F911D9695879597F9089567
:10121000E1E0660F771F881FBB1F62177307840703
:10122000BA0720F0621B730B840BBA0BEE1F88F712
:10123000E09508950E9421096894B1110C94FC096D
:1012400008950E94E10988F09F5798F0B92F9927D7
:10125000B751B0F0E1F0660F771F881F991F1AF0A1
:10126000BA95C9F714C0B13091F00E94FB09B1E002
:1012700008950C94FB09672F782F8827B85F39F001
:10128000B93FCCF3869577956795B395D9F73EF43A
:1012900090958095709561957F4F8F4F9F4F0895E2
:1012A000E89409C097FB3EF4909580957095619500
:1012B0007F4F8F4F9F4F9923A9F0F92F96E9BB27B6
:1012C0009395F695879577956795B795F111F8CF32
:1012D000FAF4BB0F11F460FF1BC06F5F7F4F8F4F9D
:1012E0009F4F16C0882311F096E911C0772321F093
:1012F0009EE8872F762F05C0662371F096E8862F2B
:1013000070E060E02AF09A95660F771F881FDAF781
:10131000880F9695879597F90895990F0008550FAE
:10132000AA0BE0E8FEEF16161706E807F907C0F06B
:1013300012161306E407F50798F0621B730B840B73
:10134000950B39F40A2661F0232B242B252B21F44D
:1013500008950A2609F4A140A6958FEF811D811DED
:10136000089597F99F6780E870E060E008959FEF27
:1013700080EC089500240A9416161706180609062C
:10138000089500240A9412161306140605060895FB
:10139000092E0394000C11F4882352F0BB0F40F483
:1013A000BF2B11F460FF04C06F5F7F4F8F4F9F4FC3
:1013B000089557FD9058440F551F59F05F3F71F045
:1013C0004795880F97FB991F61F09F3F79F08795AC
:1013D0000895121613061406551FF2CF4695F1DF35
:1013E00008C0161617061806991FF1CF86957105C5
:1013F000610508940895E894BB2766277727CB01F9
:1014000097F908950E948D0908F48FEF08950E94BE
:101410001A0A0C94C8090E94BA0938F00E94C1093E
:1014200020F0952311F00C94B1090C94B709112404
:101430000C94FC090E94D90970F3959FC1F3950F94
:1014400050E0551F629FF001729FBB27F00DB11D48
:10145000639FAA27F00DB11DAA1F649F6627B00DD8
:10146000A11D661F829F2227B00DA11D621F739FC1
:10147000B00DA11D621F839FA00D611D221F749FCF
:101480003327A00D611D231F849F600D211D822F16
:10149000762F6A2F11249F5750409AF0F1F088233D
:1014A0004AF0EE0FFF1FBB1F661F771F881F91506A
:1014B0005040A9F79E3F510580F00C94B1090C945F
:1014C000FC095F3FE4F3983ED4F3869577956795E2
:1014D000B795F795E7959F5FC1F7FE2B880F911D94
:1014E0009695879597F90895A1E21A2EAA1BBB1B22
:1014F000FD010DC0AA1FBB1FEE1FFF1FA217B307E0
:10150000E407F50720F0A21BB30BE40BF50B661FF5
:10151000771F881F991F1A9469F7609570958095B9
:1015200090959B01AC01BD01CF010895EE0FFF1F07
:101530000590F491E02D099481E090E0F8940C94EA
:06154000A10AF894FFCFA0
:10154600B302B3020000000023018C00BB006A0155
:0A155600EC00CA00DE000D0A0000E0
:00000001FF
