:100000000C9462000C9487060C9460060C948A0091
:100010000C948A000C948A000C948A000C948A0038
:100020000C948A000C94AE060C948A000C948A00FE
:100030000C948A000C948A000C948A000C948A0018
:100040000C94BE050C948A000C942E060C940806A1
:100050000C948A000C948A000C948A000C948A00F8
:100060000C948A000C948A000000000024002700F1
:100070002A0000000000250028002B0000000000DE
:1000800023002600290004040404040404040202DA
:100090000202020203030303030301020408102007
:1000A0004080010204081020010204081020000012
:1000B0000008000201000003040700000000000027
:1000C0000000330811241FBECFEFD8E0DEBFCDBF44
:1000D00011E0A0E0B1E0EAE9F5E102C005900D927F
:1000E000A833B107D9F722E0A8E3B1E001C01D921F
:1000F000A731B207E1F710E0C2E6D0E004C02197D3
:10010000FE010E94C00AC136D107C9F70E9420072C
:100110000C94CB0A0C940000CF92DF92EF92FF92E6
:100120000F931F93CF93DF936C017A018B01C0E093
:10013000D0E0CE15DF0589F0D8016D918D01D60193
:10014000ED91FC910190F081E02DC6010995892B7C
:1001500011F47E0102C02196ECCFC701DF91CF914F
:100160001F910F91FF90EF90DF90CF900895089529
:1001700080E090E00895FC01538D448D252F30E000
:10018000842F90E0821B930B541710F0CF960895A4
:1001900001970895FC01918D828D981761F0828DF1
:1001A000DF01A80FB11D5D968C91928D9F5F9F73AB
:1001B000928F90E008958FEF9FEF0895FC01918D4D
:1001C000828D981731F0828DE80FF11D858D90E0BA
:1001D00008958FEF9FEF0895FC01918D228D892F57
:1001E00090E0805C9F4F821B91098F73992708953F
:1001F0008AE791E00E94EC0021E0892B09F420E0DD
:10020000822F0895FC01848DDF01A80FB11DA35A30
:10021000BF4F2C91848D90E001968F739927848F26
:10022000A689B7892C93A089B1898C9180648C931D
:10023000938D848D981306C00288F389E02D808108
:100240008F7D80830895EF92FF920F931F93CF933A
:10025000DF93EC0181E0888F9B8D8C8D981305C016
:10026000E889F989808185FD24C0F62E0B8D10E088
:100270000F5F1F4F0F731127E02E8C8DE8120CC0FB
:100280000FB607FCFACFE889F989808185FFF5CFA1
:10029000CE010E940201F1CF8B8DFE01E80FF11D0E
:1002A000E35AFF4FF0820B8FEA89FB8980818062DD
:1002B00007C0EE89FF896083E889F98980818064BD
:1002C000808381E090E0DF91CF911F910F91FF90AB
:1002D000EF900895CF93DF93EC01888D8823C9F0C8
:1002E000EA89FB89808185FD05C0A889B9898C913F
:1002F00086FD0FC00FB607FCF5CF808185FFF2CFDA
:10030000A889B9898C9185FFEDCFCE010E940201A9
:10031000E7CFDF91CF91089580E090E0892B29F01D
:100320000E94F80081110C9400000895833081F040
:1003300028F4813099F08230A1F008958730A9F037
:100340008830B9F08430D1F4809180008F7D03C073
:10035000809180008F7780938000089584B58F7797
:1003600002C084B58F7D84BD08958091B0008F77E1
:1003700003C08091B0008F7D8093B0000895CF932B
:10038000DF93282F30E0F901E255FF4F8491F90106
:10039000E656FF4FD491F901EA57FF4FC491CC23A1
:1003A00091F081110E949601EC2FF0E0EE0FFF1FFB
:1003B000E458FF4FA591B491EC91ED2381E090E0DA
:1003C00021F480E002C080E090E0DF91CF910895B9
:1003D0001F93CF93DF93282F30E0F901E255FF4FB1
:1003E0008491F901E656FF4FD491F901EA57FF4F86
:1003F000C491CC23C9F0162F81110E949601EC2FD5
:10040000F0E0EE0FFF1FEE58FF4FA591B4918FB7AC
:10041000F894111105C09C91ED2FE095E92302C0DD
:10042000EC91ED2BEC938FBFDF91CF911F9108954D
:10043000CF93DF9390E0FC01E656FF4F2491FC013F
:10044000EA57FF4F8491882361F190E0880F991F4C
:10045000FC01E859FF4FC591D491FC01EE58FF4FC4
:10046000A591B491611109C09FB7F8948881209536
:1004700082238883EC912E230BC0623061F49FB7F6
:10048000F8943881822F809583238883EC912E2BDA
:100490002C939FBF06C08FB7F894E8812E2B28833A
:1004A0008FBFDF91CF9108951F93CF93DF93182FC4
:1004B000EB0161E00E941802209711F460E004C093
:1004C000CF3FD10539F461E0812FDF91CF911F91AA
:1004D0000C94E801E12FF0E0E255FF4FE491E330A6
:1004E000F9F048F4E130B9F0E230A1F584B580626A
:1004F00084BDC8BD34C0E730E9F0E83019F1E4301C
:1005000049F580918000806280938000D0938B00B9
:10051000C0938A0024C084B5806884BDC7BD1FC055
:1005200080918000806880938000D0938900C09380
:10053000880015C08091B00080688093B000C0939F
:10054000B3000DC08091B00080628093B000C09372
:10055000B40005C0C038D1050CF0B5CFAFCFDF91E6
:10056000CF911F9108950895809162019091630148
:100570000196909363018093620183E00E94BF0122
:10058000892B31F48CE00E94BF01892B31F411C01A
:100590008CE00E94BF01892B61F4809154019091FD
:1005A0005501A0915601B09157010196A11DB11DB1
:1005B0000BC08091540190915501A0915601B091CA
:1005C00057010197A109B1098093540190935501F6
:1005D000A0935601B09357010895809160019091C6
:1005E00061010196909361018093600182E00E9415
:1005F000BF01892B31F48BE00E94BF01892B31F4BC
:1006000011C08CE00E94BF01892B61F480915C01D4
:1006100090915D01A0915E01B0915F010196A11DD5
:10062000B11D0BC080915C0190915D01A0915E01B4
:10063000B0915F010197A109B10980935C0190938A
:100640005D01A0935E01B0935F010895009769F08A
:10065000FC0101900020E9F73197AF01481B590BCD
:10066000BC018AE791E00C948C0080E090E0089552
:100670008F929F92AF92BF920F931F93CF93DF936E
:10068000CDB7DEB7A1970FB6F894DEBF0FBECDBFD2
:1006900019A2423008F44AE08E010F5D1F4F842EEC
:1006A000912CA12CB12CA50194010E949E0AE62F49
:1006B000B901CA0101501109EA3014F4E05D01C02A
:1006C000E95CD801EC93232B242B252B61F7C8017F
:1006D0000E942603A1960FB6F894DEBF0FBECDBFD1
:1006E000DF91CF911F910F91BF90AF909F908F900E
:1006F0000895CF92DF92EF92FF92CF93DF936B0139
:100700007C01E0917A01F0917B010190F081E02D74
:100710006DE28AE791E00995EC0166277727CB0126
:100720006C197D098E099F094AE00E9438038C0FDD
:100730009D1FDF91CF91FF90EF90DF90CF900895B4
:100740000E94C60A4F925F926F927F928F929F9201
:10075000AF92BF92CF92DF92EF92FF920F931F93CF
:10076000CF93DF9300D000D0CDB7DEB786E191E024
:100770000E9426036091620170916301072E000CB4
:10078000880B990B97FF03C00E94790303C04AE0CE
:100790000E94380385E291E00E9426036091600187
:1007A00070916101072E000C880B990B97FF03C015
:1007B0000E94790303C04AE00E94380385E391E078
:1007C0000E9426031092630110926201109261014F
:1007D0001092600160915C0170915D0180915E01F9
:1007E00090915F010E947C099B01AC010E9461080D
:1007F00026E53EE049E450E40E94310A9B01AC0149
:100800000E9461082BEA3AEA46EA52E40E94310A61
:1008100020E030E043E454E40E94D20860935801A1
:100820007093590180935A0190935B0110925C017F
:1008300010925D0110925E0110925F01609154016F
:100840007091550180915601909157010E947C0949
:100850009B01AC010E94610826E53EE049E450E4BA
:100860000E94310A9B01AC010E9461082BEA3AEA1E
:1008700046EA52E40E94310A20E030E043E454E4C6
:100880000E94D208609350017093510180935201ED
:1008900090935301109254011092550110925601F9
:1008A00010925701209158013091590140915A01FD
:1008B00050915B0160E070E080EA91E40E94600882
:1008C0004B015C0140904001509041016090420119
:1008D0007090430126E535ED42E852E40E94310A6A
:1008E0006B017C0125E535E547E352ECC301B2011C
:1008F0000E94310A9B01AC01C701B6010E94610848
:100900006B017C012BEA3AEA46E251E460913C013A
:1009100070913D0180913E0190913F010E94310A0A
:100920009B01AC01C701B6010E946108209138010A
:100930003091390140913A0150913B010E94610888
:100940006B017C0120E030E04FE753E40E942C0A69
:1009500018168CF020E030E04FE753ECC701B601E9
:100960000E94CD0887FF0DC0C12CD12C3FE7E32E9C
:1009700033ECF32E06C0C12CD12C2FE7E22E23E45A
:10098000F22EC0923801D0923901E0923A01F092F1
:100990003B0140923C0150923D0160923E017092B9
:1009A0003F018092400190924101A0924201B09299
:1009B0004301C701B6010E94440969837A838B838E
:1009C0009C8309811A8120915001309151014091FD
:1009D00052015091530160E070E080EA91E40E947E
:1009E00060082B013C0180904C0190904D01A0903B
:1009F0004E01B0904F0120E030E04CE553E40E94FE
:100A0000310A6B017C0120E030E048EC52ECC5017A
:100A1000B4010E94310A9B01AC01C701B6010E94DA
:100A200061086B017C0120E030E0A9016091480180
:100A30007091490180914A0190914B010E94310AC5
:100A40009B01AC01C701B6010E94610820914401DD
:100A50003091450140914601509147010E94610843
:100A60006B017C0120E030E04FE753E40E942C0A48
:100A700018168CF020E030E04FE753ECC701B601C8
:100A80000E94CD0887FF0DC0C12CD12C9FE7E92E15
:100A900093ECF92E06C0C12CD12C8FE7E82E83E40D
:100AA000F82EC0924401D0924501E0924601F092A6
:100AB00047018092480190924901A0924A01B09268
:100AC0004B0140924C0150924D0160924E01709248
:100AD0004F01C701B6010E9444092B013C017B0173
:100AE000101611065CF460E080E10E94E80161E00C
:100AF0008FE00E94E80169817A810DC061E080E1A8
:100B00000E94E80160E08FE00E94E80169817A813B
:100B10007195619571098AE00E9454021E141F04A8
:100B200054F461E082E10E94E80160E083E10E9408
:100B3000E801B2010CC060E082E10E94E80161E0DE
:100B400083E10E94E801662777276419750989E027
:100B50000F900F900F900F90DF91CF911F910F91F9
:100B6000FF90EF90DF90CF90BF90AF909F908F90CD
:100B70007F906F905F904F900C9454021F920F9251
:100B80000FB60F9211242F933F938F939F93AF93A0
:100B9000BF938091760190917701A0917801B091F7
:100BA00079013091750123E0230F2D3720F4019650
:100BB000A11DB11D05C026E8230F0296A11DB11D80
:100BC000209375018093760190937701A09378012B
:100BD000B09379018091710190917201A09173019C
:100BE000B09174010196A11DB11D80937101909384
:100BF0007201A0937301B0937401BF91AF919F9163
:100C00008F913F912F910F900FBE0F901F901895CD
:100C10001F920F920FB60F9211242F933F934F9371
:100C20005F936F937F938F939F93AF93BF93EF9354
:100C3000FF938AE791E00E940201FF91EF91BF913B
:100C4000AF919F918F917F916F915F914F913F9164
:100C50002F910F900FBE0F901F9018951F920F921B
:100C60000FB60F9211242F938F939F93EF93FF93BF
:100C7000E0918A01F0918B018081E0919001F091E7
:100C8000910182FD12C09081809193018F5F8F73DB
:100C900020919401821751F0E0919301F0E0E65821
:100CA000FE4F958F8093930101C08081FF91EF915A
:100CB0009F918F912F910F900FBE0F901F901895BD
:100CC0001F920F920FB60F9211242F933F934F93C1
:100CD0005F936F937F938F939F93AF93BF93EF93A4
:100CE000FF93E0910201F09103010995FF91EF91CB
:100CF000BF91AF919F918F917F916F915F914F9134
:100D00003F912F910F900FBE0F901F9018951F923B
:100D10000F920FB60F9211242F933F934F935F932F
:100D20006F937F938F939F93AF93BF93EF93FF93B3
:100D3000E0910001F09101010995FF91EF91BF91C0
:100D4000AF919F918F917F916F915F914F913F9163
:100D50002F910F900FBE0F901F9018951F920F921A
:100D60000FB60F9211242F933F934F935F936F937E
:100D70007F938F939F93AF93BF93EF93FF93809154
:100D80006A0190916B018093B20080916D01909106
:100D90006E01A0916F01B09170010196A11DB11D6E
:100DA00080936D0190936E01A0936F01B0937001D9
:100DB00080916D0190916E01A0916F01B0917001D1
:100DC00040916601509167016091680170916901DD
:100DD00084179507A607B70710F180916C01811160
:100DE0001EC081E080936C0180916D0190916E0135
:100DF000A0916F01B0917001841B950BA60BB70BEE
:100E000080936D0190936E01A0936F01B093700178
:100E1000E0916401F0916501099510926C01FF91D8
:100E2000EF91BF91AF919F918F917F916F915F9162
:100E30004F913F912F910F900FBE0F901F901895DB
:100E4000789484B5826084BD84B5816084BD85B5A5
:100E5000826085BD85B5816085BD80916E008160B1
:100E600080936E0010928100809181008260809357
:100E70008100809181008160809381008091800059
:100E80008160809380008091B10084608093B10084
:100E90008091B00081608093B00080917A0084607E
:100EA00080937A0080917A00826080937A008091AA
:100EB0007A00816080937A0080917A0080688093C4
:100EC0007A001092C10080918100887F81608093B8
:100ED000810061E082E10E94180261E083E10E94EA
:100EE000180261E089E00E94180261E080E10E943E
:100EF000180261E08FE00E94180261E08AE00E941F
:100F0000180260E082E00E94180260E08BE00E941C
:100F1000180260E083E00E94180260E08CE00E940A
:100F20001802E0918A01F0918B0182E08083E091C8
:100F30008601F09187011082E0918801F09189018A
:100F40008FEC808310929201E0918E01F0918F01DD
:100F500086E08083E0918C01F0918D018081806139
:100F60008083E0918C01F0918D0180818860808385
:100F7000E0918C01F0918D01808180688083E09107
:100F80008C01F0918D0180818F7D80838DEE92E0C8
:100F90009093010180930001809169008C7F8160B2
:100FA00080936900E89A84EB92E090930301809328
:100FB000020180916900837F846080936900E99ACF
:100FC0008CE090E0A0E0B0E0809366019093670130
:100FD000A0936801B093690182EA93E09093650160
:100FE00080936401809170008E7F80937000809167
:100FF000B0008C7F8093B0008091B100877F809398
:10100000B1008091B6008F7D8093B6008091700012
:101010008D7F809370008091B10084608093B100D7
:101020008091B1008C7F8093B10086E090E0909336
:101030006B0180936A0110926D0110926E01109203
:101040006F011092700110926C0180916A01909171
:101050006B018093B200809170008160809370007A
:101060000E948C01FDCFEAE7F1E01382128288EE44
:1010700093E0A0E0B0E084839583A683B78388E003
:1010800091E09183808385EC90E09587848784EC60
:1010900090E09787868780EC90E0918B808B81EC45
:1010A00090E0938B828B82EC90E0958B848B86EC26
:1010B00090E0978B868B118E128E138E148E08956E
:1010C0005058BB27AA270E9478080C94F2090E9466
:1010D000E40938F00E94EB0920F039F49F3F19F43D
:1010E00026F40C94E1090EF4E095E7FB0C94DB097F
:1010F000E92F0E94030A58F3BA176207730784079F
:10110000950720F079F4A6F50C94250A0EF4E095E5
:101110000B2EBA2FA02D0B01B90190010C01CA01B1
:10112000A0011124FF27591B99F0593F50F4503E5C
:1011300068F11A16F040A22F232F342F4427585F4E
:10114000F3CF469537952795A795F0405395C9F766
:101150007EF41F16BA0B620B730B840BBAF091501E
:10116000A1F0FF0FBB1F661F771F881FC2F70EC0BD
:10117000BA0F621F731F841F48F487957795679590
:10118000B795F7959E3F08F0B0CF9395880F08F07C
:101190009927EE0F9795879508950E94B70908F44F
:1011A00081E008950E94E6080C94F2090E94EB0980
:1011B00058F00E94E40940F029F45F3F29F00C94B4
:1011C000DB0951110C94260A0C94E1090E94030AD0
:1011D00068F39923B1F3552391F3951B550BBB2766
:1011E000AA2762177307840738F09F5F5F4F220FAB
:1011F000331F441FAA1FA9F335D00E2E3AF0E0E8A2
:1012000032D091505040E695001CCAF72BD0FE2FEB
:1012100029D0660F771F881FBB1F2617370748077F
:10122000AB07B0E809F0BB0B802DBF01FF27935837
:101230005F4F3AF09E3F510578F00C94DB090C9417
:10124000260A5F3FE4F3983ED4F386957795679539
:10125000B795F7959F5FC9F7880F911D969587956C
:1012600097F90895E1E0660F771F881FBB1F62178B
:1012700073078407BA0720F0621B730B840BBA0B49
:10128000EE1F88F7E09508950E944B096894B1110C
:101290000C94260A08950E940B0A88F09F5798F034
:1012A000B92F9927B751B0F0E1F0660F771F881F6B
:1012B000991F1AF0BA95C9F714C0B13091F00E9485
:1012C000250AB1E008950C94250A672F782F882706
:1012D000B85F39F0B93FCCF3869577956795B395AC
:1012E000D9F73EF490958095709561957F4F8F4F1B
:1012F0009F4F0895E89409C097FB3EF49095809520
:10130000709561957F4F8F4F9F4F9923A9F0F92FCB
:1013100096E9BB279395F695879577956795B79549
:10132000F111F8CFFAF4BB0F11F460FF1BC06F5F2F
:101330007F4F8F4F9F4F16C0882311F096E911C041
:10134000772321F09EE8872F762F05C0662371F062
:1013500096E8862F70E060E02AF09A95660F771F76
:10136000881FDAF7880F9695879597F90895990F52
:101370000008550FAA0BE0E8FEEF16161706E8075F
:10138000F907C0F012161306E407F50798F0621B80
:10139000730B840B950B39F40A2661F0232B242B55
:1013A000252B21F408950A2609F4A140A6958FEF74
:1013B000811D811D089597F99F6780E870E060E0C6
:1013C00008959FEF80EC089500240A9416161706DE
:1013D00018060906089500240A9412161306140626
:1013E00005060895092E0394000C11F4882352F089
:1013F000BB0F40F4BF2B11F460FF04C06F5F7F4F41
:101400008F4F9F4F089557FD9058440F551F59F027
:101410005F3F71F04795880F97FB991F61F09F3FE1
:1014200079F087950895121613061406551FF2CF0A
:101430004695F1DF08C0161617061806991FF1CF5A
:1014400086957105610508940895E894BB27662781
:101450007727CB0197F908950E94B70908F48FEF19
:1014600008950E94440A0C94F2090E94E40938F09D
:101470000E94EB0920F0952311F00C94DB090C94E9
:10148000E10911240C94260A0E94030A70F3959F27
:10149000C1F3950F50E0551F629FF001729FBB276B
:1014A000F00DB11D639FAA27F00DB11DAA1F649F07
:1014B0006627B00DA11D661F829F2227B00DA11DBA
:1014C000621F739FB00DA11D621F839FA00D611D40
:1014D000221F749F3327A00D611D231F849F600D61
:1014E000211D822F762F6A2F11249F5750409AF08A
:1014F000F1F088234AF0EE0FFF1FBB1F661F771F16
:10150000881F91505040A9F79E3F510580F00C94E0
:10151000DB090C94260A5F3FE4F3983ED4F38695EA
:1015200077956795B795F795E7959F5FC1F7FE2B80
:10153000880F911D9695879597F90895A1E21A2E27
:10154000AA1BBB1BFD010DC0AA1FBB1FEE1FFF1F67
:10155000A217B307E407F50720F0A21BB30BE40BB7
:10156000F50B661F771F881F991F1A9469F76095FE
:101570007095809590959B01AC01BD01CF010895B8
:10158000EE0FFF1F0590F491E02D099481E090E0AB
:0A159000F8940C94CB0AF894FFCFF6
:10159A00B302B3020000000023018C00BB006A0101
:1015AA00EC00CA00DE00656E636F64657274696D73
:1015BA00655F4C3A0009656E636F64657274696DA4
:0815CA00655F523A000D0A00B2
:107E0000112484B714BE81FFF0D085E080938100F7
:107E100082E08093C00088E18093C10086E0809377
:107E2000C20080E18093C4008EE0C9D0259A86E02C
:107E300020E33CEF91E0309385002093840096BBD3
:107E4000B09BFECF1D9AA8958150A9F7CC24DD24C4
:107E500088248394B5E0AB2EA1E19A2EF3E0BF2EE7
:107E6000A2D0813461F49FD0082FAFD0023811F036
:107E7000013811F484E001C083E08DD089C08234E0
:107E800011F484E103C0853419F485E0A6D080C0E4
:107E9000853579F488D0E82EFF2485D0082F10E0AE
:107EA000102F00270E291F29000F111F8ED06801E7
:107EB0006FC0863521F484E090D080E0DECF843638
:107EC00009F040C070D06FD0082F6DD080E0C81688
:107ED00080E7D80618F4F601B7BEE895C0E0D1E017
:107EE00062D089930C17E1F7F0E0CF16F0E7DF06D8
:107EF00018F0F601B7BEE89568D007B600FCFDCFD4
:107F0000A601A0E0B1E02C9130E011968C91119780
:107F100090E0982F8827822B932B1296FA010C0160
:107F200087BEE89511244E5F5F4FF1E0A038BF0790
:107F300051F7F601A7BEE89507B600FCFDCF97BE46
:107F4000E89526C08437B1F42ED02DD0F82E2BD052
:107F50003CD0F601EF2C8F010F5F1F4F84911BD097
:107F6000EA94F801C1F70894C11CD11CFA94CF0C13
:107F7000D11C0EC0853739F428D08EE10CD085E9AC
:107F80000AD08FE07ACF813511F488E018D01DD067
:107F900080E101D065CF982F8091C00085FFFCCF94
:107FA0009093C60008958091C00087FFFCCF809118
:107FB000C00084FD01C0A8958091C6000895E0E648
:107FC000F0E098E1908380830895EDDF803219F02E
:107FD00088E0F5DFFFCF84E1DECF1F93182FE3DFCA
:107FE0001150E9F7F2DF1F91089580E0E8DFEE27F6
:047FF000FF270994CA
:027FFE00040479
:0400000300007E007B
:00000001FF
