:100000000C9462000C9419070C94F2060C948A006C
:100010000C948A000C948A000C948A000C948A0038
:100020000C948A000C9440070C948A000C948A006B
:100030000C948A000C948A000C948A000C948A0018
:100040000C9450060C948A000C94C0060C949A06EA
:100050000C948A000C948A000C948A000C948A00F8
:100060000C948A000C948A000000000024002700F1
:100070002A0000000000250028002B0000000000DE
:1000800023002600290004040404040404040202DA
:100090000202020203030303030301020408102007
:1000A0004080010204081020010204081020000012
:1000B0000008000201000003040700000000000027
:1000C0000000E30811241FBECFEFD8E0DEBFCDBF94
:1000D00011E0A0E0B1E0E4E0F7E102C005900D928C
:1000E000A832B107D9F722E0A8E2B1E001C01D9221
:1000F000A730B207E1F710E0C2E6D0E004C02197D4
:10010000FE010E94750BC136D107C9F70E94B207E4
:100110000C94800B0C940000CF92DF92EF92FF9230
:100120000F931F93CF93DF936C017A018B01C0E093
:10013000D0E0CE15DF0589F0D8016D918D01D60193
:10014000ED91FC910190F081E02DC6010995892B7C
:1001500011F47E0102C02196ECCFC701DF91CF914F
:100160001F910F91FF90EF90DF90CF900895089529
:1001700080E090E00895FC01538D448D252F30E000
:10018000842F90E0821B930B541710F0CF960895A4
:1001900001970895FC01918D828D981761F0828DF1
:1001A000DF01A80FB11D5D968C91928D9F5F9F73AB
:1001B000928F90E008958FEF9FEF0895FC01918D4D
:1001C000828D981731F0828DE80FF11D858D90E0BA
:1001D00008958FEF9FEF0895FC01918D228D892F57
:1001E00090E0805C9F4F821B91098F73992708953F
:1001F0008AE691E00E94EC0021E0892B09F420E0DE
:10020000822F0895FC01848DDF01A80FB11DA35A30
:10021000BF4F2C91848D90E001968F739927848F26
:10022000A689B7892C93A089B1898C9180648C931D
:10023000938D848D981306C00288F389E02D808108
:100240008F7D80830895EF92FF920F931F93CF933A
:10025000DF93EC0181E0888F9B8D8C8D981305C016
:10026000E889F989808185FD24C0F62E0B8D10E088
:100270000F5F1F4F0F731127E02E8C8DE8120CC0FB
:100280000FB607FCFACFE889F989808185FFF5CFA1
:10029000CE010E940201F1CF8B8DFE01E80FF11D0E
:1002A000E35AFF4FF0820B8FEA89FB8980818062DD
:1002B00007C0EE89FF896083E889F98980818064BD
:1002C000808381E090E0DF91CF911F910F91FF90AB
:1002D000EF900895CF93DF93EC01888D8823C9F0C8
:1002E000EA89FB89808185FD05C0A889B9898C913F
:1002F00086FD0FC00FB607FCF5CF808185FFF2CFDA
:10030000A889B9898C9185FFEDCFCE010E940201A9
:10031000E7CFDF91CF91089580E090E0892B29F01D
:100320000E94F80081110C9400000895833081F040
:1003300028F4813099F08230A1F008958730A9F037
:100340008830B9F08430D1F4809180008F7D03C073
:10035000809180008F7780938000089584B58F7797
:1003600002C084B58F7D84BD08958091B0008F77E1
:1003700003C08091B0008F7D8093B0000895CF932B
:10038000DF93282F30E0F901E255FF4F8491F90106
:10039000E656FF4FD491F901EA57FF4FC491CC23A1
:1003A00091F081110E949601EC2FF0E0EE0FFF1FFB
:1003B000E458FF4FA591B491EC91ED2381E090E0DA
:1003C00021F480E002C080E090E0DF91CF910895B9
:1003D0001F93CF93DF93282F30E0F901E255FF4FB1
:1003E0008491F901E656FF4FD491F901EA57FF4F86
:1003F000C491CC23C9F0162F81110E949601EC2FD5
:10040000F0E0EE0FFF1FEE58FF4FA591B4918FB7AC
:10041000F894111105C09C91ED2FE095E92302C0DD
:10042000EC91ED2BEC938FBFDF91CF911F9108954D
:10043000CF93DF9390E0FC01E656FF4F2491FC013F
:10044000EA57FF4F8491882361F190E0880F991F4C
:10045000FC01E859FF4FC591D491FC01EE58FF4FC4
:10046000A591B491611109C09FB7F8948881209536
:1004700082238883EC912E230BC0623061F49FB7F6
:10048000F8943881822F809583238883EC912E2BDA
:100490002C939FBF06C08FB7F894E8812E2B28833A
:1004A0008FBFDF91CF9108951F93CF93DF93182FC4
:1004B000EB0161E00E941802209711F460E004C093
:1004C000CF3FD10539F461E0812FDF91CF911F91AA
:1004D0000C94E801E12FF0E0E255FF4FE491E330A6
:1004E000F9F048F4E130B9F0E230A1F584B580626A
:1004F00084BDC8BD34C0E730E9F0E83019F1E4301C
:1005000049F580918000806280938000D0938B00B9
:10051000C0938A0024C084B5806884BDC7BD1FC055
:1005200080918000806880938000D0938900C09380
:10053000880015C08091B00080688093B000C0939F
:10054000B3000DC08091B00080628093B000C09372
:10055000B40005C0C038D1050CF0B5CFAFCFDF91E6
:10056000CF911F91089508954F925F926F927F925D
:100570008F929F92AF92BF92CF92DF92EF92FF92B3
:100580000F931F93CF93DF9300D000D0CDB7DEB78A
:1005900010924B0110924A011092490110924801A9
:1005A000609144017091450180914601909147010D
:1005B0000E942C0A9B01AC010E94110926E53EE035
:1005C00049E450E40E94E10A9B01AC010E94110938
:1005D0002BEA3AEA46EA52E40E94E10A20E030E0DF
:1005E00043E454E40E9482096093590170935A01D4
:1005F00080935B0190935C0110924401109245013D
:1006000010924601109247016091400170914101A2
:1006100080914201909143010E942C0A9B01AC0100
:100620000E94110926E53EE049E450E40E94E10AF7
:100630009B01AC010E9411092BEA3AEA46EA52E416
:100640000E94E10A20E030E043E454E40E94820981
:1006500060935D0170935E0180935F0190936001F0
:1006600010924001109241011092420110924301F8
:100670002091590130915A0140915B0150915C01E8
:1006800060E070E080EA91E40E9410094B015C0197
:1006900040903001509031016090320170903301F0
:1006A0002AEA3AEA4AEF51E40E94E10A6B017C012E
:1006B0002AEA3AEA42E152ECC301B2010E94E10A9D
:1006C0009B01AC01C701B6010E9411096B017C01BD
:1006D00025E535E545E051E460912C0170912D014F
:1006E00080912E0190912F010E94E10A9B01AC01A3
:1006F000C701B6010E9411092091280130912901FA
:1007000040912A0150912B010E9411096B017C013B
:1007100020E030E04FE753E40E94DC0A18168CF02A
:1007200020E030E04FE753ECC701B6010E947D099D
:1007300087FF0DC0C12CD12C3FE7E32E33ECF32E05
:1007400006C0C12CD12C2FE7E22E23E4F22EC0925A
:100750002801D0922901E0922A01F0922B014092C7
:100760002C0150922D0160922E0170922F018092E7
:10077000300190923101A0923201B0923301C70151
:10078000B6010E94F40969837A838B839C83098173
:100790001A8120915D0130915E0140915F0150917D
:1007A000600160E070E080EA91E40E9410092B0192
:1007B0003C0180903C0190903D01A0903E01B090A2
:1007C0003F012AEA3AEA4AE751E40E94E10A6B0152
:1007D0007C012AEA3AEA42E951ECC501B4010E94DF
:1007E000E10A9B01AC01C701B6010E9411096B012E
:1007F0007C0125E535E545E850E4609138017091CC
:10080000390180913A0190913B010E94E10A9B01DC
:10081000AC01C701B6010E94110920913401309149
:10082000350140913601509137010E9411096B0149
:100830007C0120E030E04FE753E40E94DC0A181608
:100840008CF020E030E04FE753ECC701B6010E9486
:100850007D0987FF0DC0C12CD12C9FE7E92E93ECB9
:10086000F92E06C0C12CD12C8FE7E82E83E4F82E98
:10087000C0923401D0923501E0923601F0923701F6
:100880008092380190923901A0923A01B0923B01D6
:1008900040923C0150923D0160923E0170923F01B6
:1008A000C701B6010E94F4092B013C017B0110161F
:1008B00011065CF460E080E10E94E80161E08FE0F5
:1008C0000E94E80169817A810DC061E080E10E94A7
:1008D000E80160E08FE00E94E80169817A8171950A
:1008E000619571098AE00E9454021E141F0454F499
:1008F00061E082E10E94E80160E081E10E94E8019C
:10090000B2010CC060E082E10E94E80161E081E197
:100910000E94E801662777276419750989E00F901E
:100920000F900F900F90DF91CF911F910F91FF903B
:10093000EF90DF90CF90BF90AF909F908F907F907F
:100940006F905F904F900C94540280914A01909167
:100950004B01019690934B0180934A0182E00E94E3
:10096000BF01892B31F485E00E94BF01892B31F44E
:1009700011C085E00E94BF01892B61F48091400184
:1009800090914101A0914201B09143010196A11DB6
:10099000B11D0BC08091400190914101A091420195
:1009A000B09143010197A109B1098093400190934F
:1009B0004101A0934201B093430108958091480101
:1009C000909149010196909349018093480183E0F9
:1009D0000E94BF01892B31F484E00E94BF01892B62
:1009E00031F411C085E00E94BF01892B61F4809130
:1009F000440190914501A0914601B09147010196B3
:100A0000A11DB11D0BC08091440190914501A091A1
:100A10004601B09147010197A109B10980934401B2
:100A200090934501A0934601B09347010895009724
:100A300069F0FC0101900020E9F73197AF01481BF4
:100A4000590BBC018AE691E00C948C0080E090E0A8
:100A500008958F929F92AF92BF920F931F93CF935F
:100A6000DF93CDB7DEB7A1970FB6F894DEBF0FBE08
:100A7000CDBF19A2423008F44AE08E010F5D1F4F2E
:100A8000842E912CA12CB12CA50194010E94530B12
:100A9000E62FB901CA0101501109EA3014F4E05DF2
:100AA00001C0E95CD801EC93232B242B252B61F7A3
:100AB000C8010E941705A1960FB6F894DEBF0FBEBD
:100AC000CDBFDF91CF911F910F91BF90AF909F90BD
:100AD0008F9008954F925F926F927F928F929F9224
:100AE000AF92BF92CF92DF92EF92FF926B017C01A7
:100AF000B42E9B01AC010E944E0B882319F086E1B5
:100B000091E027C026013701E89477F82FEF3FEFF7
:100B10004FE75FE7C301B2010E944E0B81110DC088
:100B20002FEF3FEF4FE75FE7C301B2010E947D095E
:100B300018161CF48AE191E00CC02FEF3FEF4FE74D
:100B40005FE4C701B6010E94DC0A181684F48EE146
:100B500091E0FF90EF90DF90CF90BF90AF909F908B
:100B60008F907F906F905F904F900C9417052FEFB0
:100B70003FEF4FE75FECC701B6010E947D0987FD9B
:100B8000E6CF20E030E0A901C701B6010E947D094F
:100B900087FF11C0E0916A01F0916B010190F08133
:100BA000E02D6DE28AE691E009954C01F7FAF094A8
:100BB000F7F8F09402C0812C912CA12C60E070E039
:100BC00080E09FE3AB1441F020E030E040E251E4EC
:100BD0000E948209A394F6CF9B01AC01C701B60124
:100BE0000E9411092B013C010E94FB096B017C0151
:100BF0000E942A0A9B01AC01C301B2010E941009A4
:100C00002B013C014AE0C701B6010E9429057C0185
:100C1000E80CF91CBB2069F0E0916A01F0916B01CE
:100C20000190F081E02D6EE28AE691E00995E80EF0
:100C3000F91EDB2CDD2021F120E030E040E251E420
:100C4000C301B2010E94E10A2B013C010E94FB0991
:100C50004B01A12CB12C4AE0C501B4010E94290529
:100C6000E80EF91EC501B4010E942A0A9B01AC01DD
:100C7000C301B2010E9410092B013C01DA94DACFC2
:100C8000C701FF90EF90DF90CF90BF90AF909F9003
:100C90008F907F906F905F904F9008950E947B0B94
:100CA0001F920F920FB60F9211242F933F938F93A1
:100CB0009F93AF93BF938091660190916701A0913C
:100CC0006801B09169013091650123E0230F2D3750
:100CD00020F40196A11DB11D05C026E8230F029640
:100CE000A11DB11D2093650180936601909367015A
:100CF000A0936801B09369018091610190916201B4
:100D0000A0916301B09164010196A11DB11D809372
:100D1000610190936201A0936301B0936401BF915C
:100D2000AF919F918F913F912F910F900FBE0F9098
:100D30001F9018951F920F920FB60F9211242F93A8
:100D40003F934F935F936F937F938F939F93AF9353
:100D5000BF93EF93FF938AE691E00E940201FF9117
:100D6000EF91BF91AF919F918F917F916F915F9123
:100D70004F913F912F910F900FBE0F901F9018959C
:100D80001F920F920FB60F9211242F938F939F9360
:100D9000EF93FF93E0917A01F0917B018081E091E4
:100DA0008001F091810182FD12C0908180918301C8
:100DB0008F5F8F7320918401821751F0E09183013E
:100DC000F0E0E659FE4F958F8093830101C080814A
:100DD000FF91EF919F918F912F910F900FBE0F90E8
:100DE0001F9018951F920F920FB60F9211242F93F8
:100DF0003F934F935F936F937F938F939F93AF93A3
:100E0000BF93EF93FF93E0910201F09103010995E5
:100E1000FF91EF91BF91AF919F918F917F916F91D2
:100E20005F914F913F912F910F900FBE0F901F90A8
:100E300018951F920F920FB60F9211242F933F9384
:100E40004F935F936F937F938F939F93AF93BF93D2
:100E5000EF93FF93E0910001F09101010995FF915B
:100E6000EF91BF91AF919F918F917F916F915F9122
:100E70004F913F912F910F900FBE0F901F9018959B
:100E80001F920F920FB60F9211242F933F934F93FF
:100E90005F936F937F938F939F93AF93BF93EF93E2
:100EA000FF9380915201909153018093B200809101
:100EB000550190915601A0915701B09158010196AA
:100EC000A11DB11D8093550190935601A093570128
:100ED000B09358018091550190915601A09157010E
:100EE000B091580140914E0150914F0160915001D5
:100EF0007091510184179507A607B70710F18091EB
:100F0000540181111EC081E08093540180915501EC
:100F100090915601A0915701B0915801841B950BF7
:100F2000A60BB70B8093550190935601A0935701E0
:100F3000B0935801E0914C01F0914D010995109248
:100F40005401FF91EF91BF91AF919F918F917F914C
:100F50006F915F914F913F912F910F900FBE0F9026
:100F60001F901895789484B5826084BD84B58160A3
:100F700084BD85B5826085BD85B5816085BD809164
:100F80006E00816080936E001092810080918100DC
:100F900082608093810080918100816080938100D4
:100FA000809180008160809380008091B100846096
:100FB0008093B1008091B00081608093B0008091F7
:100FC0007A00846080937A0080917A0082608093B6
:100FD0007A0080917A00816080937A0080917A0013
:100FE000806880937A001092C10080918100887F90
:100FF00081608093810061E082E10E94180261E0DB
:1010000081E10E94180261E089E00E94180261E01B
:1010100080E10E94180261E08FE00E94180261E006
:101020008AE00E94180260E083E00E94180260E0FB
:1010300084E00E94180260E082E00E94180260E0F2
:1010400085E00E941802E0917A01F0917B0182E034
:101050008083E0917601F09177011082E091780130
:10106000F09179018FEC808310928201E0917E01F2
:10107000F0917F0186E08083E0917C01F0917D0119
:10108000808180618083E0917C01F0917D0180818D
:1010900088608083E0917C01F0917D01808180688F
:1010A0008083E0917C01F0917D0180818F7D808340
:1010B0008EED94E09093030180930201809169008A
:1010C000837F846080936900E99A85EA94E0909335
:1010D000010180930001809169008C7F8160809381
:1010E0006900E89A8CE090E0A0E0B0E080934E01C7
:1010F00090934F01A0935001B093510184EB92E083
:1011000090934D0180934C01809170008E7F80936D
:1011100070008091B0008C7F8093B0008091B1000E
:10112000877F8093B1008091B6008F7D8093B60059
:10113000809170008D7F809370008091B1008460F9
:101140008093B1008091B1008C7F8093B10086E0E4
:1011500090E09093530180935201109255011092A8
:10116000560110925701109258011092540180912B
:101170005201909153018093B20080917000816080
:101180008093700060915D0170915E0180915F01BC
:101190009091600142E00E946A0582E291E00E9423
:1011A00017056091590170915A0180915B019091EE
:1011B0005C0142E00E946A0584E291E00E9417050A
:1011C0000E948C01DFCFEAE6F1E01382128288EE02
:1011D00093E0A0E0B0E084839583A683B78388E0A2
:1011E00091E09183808385EC90E09587848784ECFF
:1011F00090E09787868780EC90E0918B808B81ECE4
:1012000090E0938B828B82EC90E0958B848B86ECC4
:1012100090E0978B868B118E128E138E148E08950C
:101220005058BB27AA270E9428090C94A20A0E94A2
:10123000940A38F00E949B0A20F039F49F3F19F479
:1012400026F40C94910A0EF4E095E7FB0C948B0ABB
:10125000E92F0E94B30A58F3BA176207730784078D
:10126000950720F079F4A6F50C94D50A0EF4E095D4
:101270000B2EBA2FA02D0B01B90190010C01CA0150
:10128000A0011124FF27591B99F0593F50F4503EFB
:1012900068F11A16F040A22F232F342F4427585FED
:1012A000F3CF469537952795A795F0405395C9F705
:1012B0007EF41F16BA0B620B730B840BBAF09150BD
:1012C000A1F0FF0FBB1F661F771F881FC2F70EC05C
:1012D000BA0F621F731F841F48F48795779567952F
:1012E000B795F7959E3F08F0B0CF9395880F08F01B
:1012F0009927EE0F9795879508950E94670A08F43D
:1013000081E008950E9496090C94A20A0E949B0A0B
:1013100058F00E94940A40F029F45F3F29F00C94A1
:101320008B0A51110C94D60A0C94910A0E94B30AAC
:1013300068F39923B1F3552391F3951B550BBB2704
:10134000AA2762177307840738F09F5F5F4F220F49
:10135000331F441FAA1FA9F335D00E2E3AF0E0E840
:1013600032D091505040E695001CCAF72BD0FE2F8A
:1013700029D0660F771F881FBB1F2617370748071E
:10138000AB07B0E809F0BB0B802DBF01FF279358D6
:101390005F4F3AF09E3F510578F00C948B0A0C9405
:1013A000D60A5F3FE4F3983ED4F386957795679528
:1013B000B795F7959F5FC9F7880F911D969587950B
:1013C00097F90895E1E0660F771F881FBB1F62172A
:1013D00073078407BA0720F0621B730B840BBA0BE8
:1013E000EE1F88F7E09508950E94FB096894B111FB
:1013F0000C94D60A08950E94BB0A88F09F5798F073
:10140000B92F9927B751B0F0E1F0660F771F881F09
:10141000991F1AF0BA95C9F714C0B13091F00E9423
:10142000D50AB1E008950C94D50A672F782F882744
:10143000B85F39F0B93FCCF3869577956795B3954A
:10144000D9F73EF490958095709561957F4F8F4FB9
:101450009F4F0895E89409C097FB3EF490958095BE
:10146000709561957F4F8F4F9F4F9923A9F0F92F6A
:1014700096E9BB279395F695879577956795B795E8
:10148000F111F8CFFAF4BB0F11F460FF1BC06F5FCE
:101490007F4F8F4F9F4F16C0882311F096E911C0E0
:1014A000772321F09EE8872F762F05C0662371F001
:1014B00096E8862F70E060E02AF09A95660F771F15
:1014C000881FDAF7880F9695879597F90895990FF1
:1014D0000008550FAA0BE0E8FEEF16161706E807FE
:1014E000F907C0F012161306E407F50798F0621B1F
:1014F000730B840B950B39F40A2661F0232B242BF4
:10150000252B21F408950A2609F4A140A6958FEF12
:10151000811D811D089597F99F6780E870E060E064
:1015200008959FEF80EC089500240A94161617067C
:1015300018060906089500240A94121613061406C4
:1015400005060895092E0394000C11F4882352F027
:10155000BB0F40F4BF2B11F460FF04C06F5F7F4FDF
:101560008F4F9F4F089557FD9058440F551F59F0C6
:101570005F3F71F04795880F97FB991F61F09F3F80
:1015800079F087950895121613061406551FF2CFA9
:101590004695F1DF08C0161617061806991FF1CFF9
:1015A00086957105610508940895E894BB27662720
:1015B0007727CB0197F908950E94670A08F48FEF07
:1015C00008950E94F40A0C94A20A0E94940A38F02A
:1015D0000E949B0A20F0952311F00C948B0A0C9426
:1015E000910A11240C94D60A0E94B30A70F3959FB5
:1015F000C1F3950F50E0551F629FF001729FBB270A
:10160000F00DB11D639FAA27F00DB11DAA1F649FA5
:101610006627B00DA11D661F829F2227B00DA11D58
:10162000621F739FB00DA11D621F839FA00D611DDE
:10163000221F749F3327A00D611D231F849F600DFF
:10164000211D822F762F6A2F11249F5750409AF028
:10165000F1F088234AF0EE0FFF1FBB1F661F771FB4
:10166000881F91505040A9F79E3F510580F00C947F
:101670008B0A0C94D60A5F3FE4F3983ED4F3869528
:1016800077956795B795F795E7959F5FC1F7FE2B1F
:10169000880F911D9695879597F908950E94670A7E
:1016A000880B990B0895A1E21A2EAA1BBB1BFD0102
:1016B0000DC0AA1FBB1FEE1FFF1FA217B307E40731
:1016C000F50720F0A21BB30BE40BF50B661F771F89
:1016D000881F991F1A9469F7609570958095909569
:1016E0009B01AC01BD01CF010895EE0FFF1F0590D6
:1016F000F491E02D099481E090E0F8940C94800B33
:04170000F894FFCF8B
:10170400B302B3020000000023018C00BB006A0195
:10171400EC00CA00DE006E616E00696E66006F76D2
:0817240066002C000D0A000014
:107E0000112484B714BE81FFF0D085E080938100F7
:107E100082E08093C00088E18093C10086E0809377
:107E2000C20080E18093C4008EE0C9D0259A86E02C
:107E300020E33CEF91E0309385002093840096BBD3
:107E4000B09BFECF1D9AA8958150A9F7CC24DD24C4
:107E500088248394B5E0AB2EA1E19A2EF3E0BF2EE7
:107E6000A2D0813461F49FD0082FAFD0023811F036
:107E7000013811F484E001C083E08DD089C08234E0
:107E800011F484E103C0853419F485E0A6D080C0E4
:107E9000853579F488D0E82EFF2485D0082F10E0AE
:107EA000102F00270E291F29000F111F8ED06801E7
:107EB0006FC0863521F484E090D080E0DECF843638
:107EC00009F040C070D06FD0082F6DD080E0C81688
:107ED00080E7D80618F4F601B7BEE895C0E0D1E017
:107EE00062D089930C17E1F7F0E0CF16F0E7DF06D8
:107EF00018F0F601B7BEE89568D007B600FCFDCFD4
:107F0000A601A0E0B1E02C9130E011968C91119780
:107F100090E0982F8827822B932B1296FA010C0160
:107F200087BEE89511244E5F5F4FF1E0A038BF0790
:107F300051F7F601A7BEE89507B600FCFDCF97BE46
:107F4000E89526C08437B1F42ED02DD0F82E2BD052
:107F50003CD0F601EF2C8F010F5F1F4F84911BD097
:107F6000EA94F801C1F70894C11CD11CFA94CF0C13
:107F7000D11C0EC0853739F428D08EE10CD085E9AC
:107F80000AD08FE07ACF813511F488E018D01DD067
:107F900080E101D065CF982F8091C00085FFFCCF94
:107FA0009093C60008958091C00087FFFCCF809118
:107FB000C00084FD01C0A8958091C6000895E0E648
:107FC000F0E098E1908380830895EDDF803219F02E
:107FD00088E0F5DFFFCF84E1DECF1F93182FE3DFCA
:107FE0001150E9F7F2DF1F91089580E0E8DFEE27F6
:047FF000FF270994CA
:027FFE00040479
:0400000300007E007B
:00000001FF
