:100000000C9462000C944B060C9424060C948A0009
:100010000C948A000C948A000C948A000C948A0038
:100020000C948A000C9472060C948A000C948A003A
:100030000C948A000C948A000C948A000C948A0018
:100040000C9482050C948A000C94F2050C94CC0557
:100050000C948A000C948A000C948A000C948A00F8
:100060000C948A000C948A000000000024002700F1
:100070002A0000000000250028002B0000000000DE
:1000800023002600290004040404040404040202DA
:100090000202020203030303030301020408102007
:1000A0004080010204081020010204081020000012
:1000B0000008000201000003040700000000000027
:1000C0000000AD0811241FBECFEFD8E0DEBFCDBFCA
:1000D00011E0A0E0B1E0E8E9F6E102C005900D9280
:1000E000A632B107D9F722E0A6E2B1E001C01D9225
:1000F000A530B207E1F710E0C2E6D0E004C02197D6
:10010000FE010E943F0BC136D107C9F70E94E406E9
:100110000C944A0B0C940000CF92DF92EF92FF9266
:100120000F931F93CF93DF936C017A018B01C0E093
:10013000D0E0CE15DF0589F0D8016D918D01D60193
:10014000ED91FC910190F081E02DC6010995892B7C
:1001500011F47E0102C02196ECCFC701DF91CF914F
:100160001F910F91FF90EF90DF90CF900895089529
:1001700080E090E00895FC01538D448D252F30E000
:10018000842F90E0821B930B541710F0CF960895A4
:1001900001970895FC01918D828D981761F0828DF1
:1001A000DF01A80FB11D5D968C91928D9F5F9F73AB
:1001B000928F90E008958FEF9FEF0895FC01918D4D
:1001C000828D981731F0828DE80FF11D858D90E0BA
:1001D00008958FEF9FEF0895FC01918D228D892F57
:1001E00090E0805C9F4F821B91098F73992708953F
:1001F00088E691E00E94EC0021E0892B09F420E0E0
:10020000822F0895FC01848DDF01A80FB11DA35A30
:10021000BF4F2C91848D90E001968F739927848F26
:10022000A689B7892C93A089B1898C9180648C931D
:10023000938D848D981306C00288F389E02D808108
:100240008F7D80830895EF92FF920F931F93CF933A
:10025000DF93EC0181E0888F9B8D8C8D981305C016
:10026000E889F989808185FD24C0F62E0B8D10E088
:100270000F5F1F4F0F731127E02E8C8DE8120CC0FB
:100280000FB607FCFACFE889F989808185FFF5CFA1
:10029000CE010E940201F1CF8B8DFE01E80FF11D0E
:1002A000E35AFF4FF0820B8FEA89FB8980818062DD
:1002B00007C0EE89FF896083E889F98980818064BD
:1002C000808381E090E0DF91CF911F910F91FF90AB
:1002D000EF900895CF93DF93EC01888D8823C9F0C8
:1002E000EA89FB89808185FD05C0A889B9898C913F
:1002F00086FD0FC00FB607FCF5CF808185FFF2CFDA
:10030000A889B9898C9185FFEDCFCE010E940201A9
:10031000E7CFDF91CF91089580E090E0892B29F01D
:100320000E94F80081110C9400000895833081F040
:1003300028F4813099F08230A1F008958730A9F037
:100340008830B9F08430D1F4809180008F7D03C073
:10035000809180008F7780938000089584B58F7797
:1003600002C084B58F7D84BD08958091B0008F77E1
:1003700003C08091B0008F7D8093B0000895CF932B
:10038000DF93282F30E0F901E255FF4F8491F90106
:10039000E656FF4FD491F901EA57FF4FC491CC23A1
:1003A00091F081110E949601EC2FF0E0EE0FFF1FFB
:1003B000E458FF4FA591B491EC91ED2381E090E0DA
:1003C00021F480E002C080E090E0DF91CF910895B9
:1003D0001F93CF93DF93282F30E0F901E255FF4FB1
:1003E0008491F901E656FF4FD491F901EA57FF4F86
:1003F000C491CC23C9F0162F81110E949601EC2FD5
:10040000F0E0EE0FFF1FEE58FF4FA591B4918FB7AC
:10041000F894111105C09C91ED2FE095E92302C0DD
:10042000EC91ED2BEC938FBFDF91CF911F9108954D
:10043000CF93DF9390E0FC01E656FF4F2491FC013F
:10044000EA57FF4F8491882361F190E0880F991F4C
:10045000FC01E859FF4FC591D491FC01EE58FF4FC4
:10046000A591B491611109C09FB7F8948881209536
:1004700082238883EC912E230BC0623061F49FB7F6
:10048000F8943881822F809583238883EC912E2BDA
:100490002C939FBF06C08FB7F894E8812E2B28833A
:1004A0008FBFDF91CF9108951F93CF93DF93182FC4
:1004B000EB0161E00E941802209711F460E004C093
:1004C000CF3FD10539F461E0812FDF91CF911F91AA
:1004D0000C94E801E12FF0E0E255FF4FE491E330A6
:1004E000F9F048F4E130B9F0E230A1F584B580626A
:1004F00084BDC8BD34C0E730E9F0E83019F1E4301C
:1005000049F580918000806280938000D0938B00B9
:10051000C0938A0024C084B5806884BDC7BD1FC055
:1005200080918000806880938000D0938900C09380
:10053000880015C08091B00080688093B000C0939F
:10054000B3000DC08091B00080628093B000C09372
:10055000B40005C0C038D1050CF0B5CFAFCFDF91E6
:10056000CF911F91089508954F925F926F927F925D
:100570008F929F92AF92BF92CF92DF92EF92FF92B3
:100580000F931F93CF93DF9300D000D0CDB7DEB78A
:1005900010924D0110924C0110924B0110924A01A1
:1005A0006091460170914701809148019091490105
:1005B0000E94F6099B01AC010E94DB0826E53EE0A3
:1005C00049E450E40E94AB0A9B01AC010E94DB08A5
:1005D0002BEA3AEA46EA52E40E94AB0A20E030E015
:1005E00043E454E40E944C09609342017093430138
:1005F0008093440190934501109246011092470167
:10060000109248011092490160913E0170913F01A2
:1006100080914001909141010E94F6099B01AC013B
:100620000E94DB0826E53EE049E450E40E94AB0A64
:100630009B01AC010E94DB082BEA3AEA46EA52E44D
:100640000E94AB0A20E030E043E454E40E944C09ED
:1006500060935B0170935C0180935D0190935E01F8
:1006600010923E0110923F01109240011092410100
:100670002091420130914301409144015091450144
:1006800060E070E0CB010E94DA084B015C01409011
:100690002E0150902F01609030017090310126E5BD
:1006A00035ED42E852E40E94AB0A6B017C0125E57E
:1006B00035E547E352ECC301B2010E94AB0A9B014E
:1006C000AC01C701B6010E94DB086B017C012BEA7B
:1006D0003AEA46E251E460912A0170912B0180913F
:1006E0002C0190912D010E94AB0A9B01AC01C70126
:1006F000B6010E94DB08209126013091270140912C
:100700002801509129010E94DB086B017C0120E047
:1007100030E04FE753E40E94A60A18168CF020E060
:1007200030E04FE753ECC701B6010E94470987FF4D
:100730000DC0C12CD12C3FE7E32E33ECF32E06C0C5
:10074000C12CD12C2FE7E22E23E4F22EC0922601F9
:10075000D0922701E0922801F092290140922A01CB
:1007600050922B0160922C0170922D0180922E01EB
:1007700090922F01A0923001B0923101C701B601D1
:100780000E94BE0969837A838B839C8309811A81C5
:1007900020915B0130915C0140915D0150915E01BF
:1007A00060E070E080EA91E40E94DA082B013C01ED
:1007B00080903A0190903B01A0903C01B0903D01A7
:1007C00020E030E0A90160E070E080E491E40E9464
:1007D0004C0920E030E040E85FE30E94DB0820E0C5
:1007E00030E0A9010E94DB0820E030E048EC51E451
:1007F0000E94AB0AA30192010E94AB0A6B017C012B
:1008000020E030E048EC51ECC501B4010E94AB0A95
:100810009B01AC01C701B6010E94DB086B017C01A2
:1008200020E030E0A901609136017091370180919C
:100830003801909139010E94AB0A9B01AC01C701BC
:10084000B6010E94DB0820913201309133014091C2
:100850003401509135010E94DB086B017C0120E0DE
:1008600030E04FE753E40E94A60A18168CF020E00F
:1008700030E04FE753ECC701B6010E94470987FFFC
:100880000DC0C12CD12C9FE7E92E93ECF92E06C0A8
:10089000C12CD12C8FE7E82E83E4F82EC0923201D0
:1008A000D0923301E0923401F0923501809236010A
:1008B00090923701A0923801B092390140923A01EA
:1008C00050923B0160923C0170923D01C701B6011C
:1008D0000E94BE092B013C017B01101611065CF43D
:1008E00060E080E10E94E80161E08FE00E94E801A1
:1008F00069817A810DC061E080E10E94E80160E0D9
:100900008FE00E94E80169817A8171956195710992
:100910008AE00E9454021E141F0454F461E082E134
:100920000E94E80160E081E10E94E801B2010CC090
:1009300060E082E10E94E80161E081E10E94E8015B
:10094000662777276419750989E00F900F900F903B
:100950000F90DF91CF911F910F91FF90EF90DF905B
:10096000CF90BF90AF909F908F907F906F905F904F
:100970004F900C94540280914C0190914D0101963E
:1009800090934D0180934C0182E00E94BF01892B1E
:1009900031F485E00E94BF01892B31F411C085E05C
:1009A0000E94BF01892B61F480913E0190913F012B
:1009B000A0914001B09141010196A11DB11D0BC054
:1009C00080913E0190913F01A0914001B091410181
:1009D0000197A109B10980933E0190933F01A09333
:1009E0004001B0934101089580914A0190914B01DB
:1009F000019690934B0180934A0183E00E94BF01CE
:100A0000892B31F484E00E94BF01892B31F411C09D
:100A100085E00E94BF01892B61F48091460190918D
:100A20004701A0914801B09149010196A11DB11D56
:100A30000BC08091460190914701A0914801B0916F
:100A400049010197A109B10980934601909347019B
:100A5000A0934801B09349010895009769F0FC0103
:100A600001900020E9F73197AF01481B590BBC01F9
:100A700088E691E00C948C0080E090E008958F92DD
:100A80009F92AF92BF920F931F93CF93DF93CDB7F7
:100A9000DEB7A1970FB6F894DEBF0FBECDBF19A287
:100AA000423008F44AE08E010F5D1F4F842E912CD6
:100AB000A12CB12CA50194010E941D0BE62FB901B8
:100AC000CA0101501109EA3014F4E05D01C0E95C8B
:100AD000D801EC93232B242B252B61F7C8010E940E
:100AE0002D05A1960FB6F894DEBF0FBECDBFDF91E6
:100AF000CF911F910F91BF90AF909F908F900895CD
:100B00000E94450B1F920F920FB60F9211242F9344
:100B10003F938F939F93AF93BF9380916401909184
:100B20006501A0916601B09167013091630123E0F6
:100B3000230F2D3720F40196A11DB11D05C026E815
:100B4000230F0296A11DB11D2093630180936401C0
:100B500090936501A0936601B093670180915F0156
:100B600090916001A0916101B09162010196A11D77
:100B7000B11D80935F0190936001A0936101B093D8
:100B80006201BF91AF919F918F913F912F910F90F3
:100B90000FBE0F901F9018951F920F920FB60F92D5
:100BA00011242F933F934F935F936F937F938F9372
:100BB0009F93AF93BF93EF93FF9388E691E00E94DA
:100BC0000201FF91EF91BF91AF919F918F917F9122
:100BD0006F915F914F913F912F910F900FBE0F90AA
:100BE0001F9018951F920F920FB60F9211242F93FA
:100BF0008F939F93EF93FF93E0917801F0917901A8
:100C00008081E0917E01F0917F0182FD12C0908190
:100C1000809181018F5F8F7320918201821751F043
:100C2000E0918101F0E0E859FE4F958F80938101BA
:100C300001C08081FF91EF919F918F912F910F9033
:100C40000FBE0F901F9018951F920F920FB60F9224
:100C500011242F933F934F935F936F937F938F93C1
:100C60009F93AF93BF93EF93FF93E0910201F091B5
:100C700003010995FF91EF91BF91AF919F918F91E2
:100C80007F916F915F914F913F912F910F900FBE88
:100C90000F901F9018951F920F920FB60F9211246C
:100CA0002F933F934F935F936F937F938F939F9374
:100CB000AF93BF93EF93FF93E0910001F091010197
:100CC0000995FF91EF91BF91AF919F918F917F9186
:100CD0006F915F914F913F912F910F900FBE0F90A9
:100CE0001F9018951F920F920FB60F9211242F93F9
:100CF0003F934F935F936F937F938F939F93AF93A4
:100D0000BF93EF93FF93809154019091550180938D
:100D1000B2008091570190915801A0915901B09172
:100D20005A010196A11DB11D80935701909358015E
:100D3000A0935901B0935A018091570190915801A5
:100D4000A0915901B0915A01409150015091510127
:100D5000609152017091530184179507A607B70758
:100D600010F18091560181111EC081E080935601DF
:100D70008091570190915801A0915901B0915A0169
:100D8000841B950BA60BB70B8093570190935801CA
:100D9000A0935901B0935A01E0914E01F0914F0197
:100DA000099510925601FF91EF91BF91AF919F91DC
:100DB0008F917F916F915F914F913F912F910F9004
:100DC0000FBE0F901F901895789484B5826084BDF3
:100DD00084B5816084BD85B5826085BD85B581603F
:100DE00085BD80916E00816080936E0010928100BD
:100DF0008091810082608093810080918100816078
:100E00008093810080918000816080938000809138
:100E1000B10084608093B1008091B00081608093C4
:100E2000B00080917A00846080937A0080917A008B
:100E3000826080937A0080917A00816080937A004A
:100E400080917A00806880937A001092C10080912E
:100E50008100887F81608093810061E082E10E944F
:100E6000180261E081E10E94180261E089E00E94BD
:100E7000180261E080E10E94180261E08FE00E94A8
:100E8000180261E08AE00E94180260E083E00E949C
:100E9000180260E084E00E94180260E082E00E9494
:100EA000180260E085E00E941802E0917801F0915C
:100EB000790182E08083E0917401F09175011082E4
:100EC000E0917601F09177018FEC808310928001A0
:100ED000E0917C01F0917D0186E08083E0917A01D0
:100EE000F0917B01808180618083E0917A01F091B3
:100EF0007B01808188608083E0917A01F0917B01A1
:100F0000808180688083E0917A01F0917B0180810B
:100F10008F7D808384EF94E090930301809302019E
:100F200080916900837F846080936900E99A8BEBEC
:100F300094E09093010180930001809169008C7F7F
:100F4000816080936900E89A8CE090E0A0E0B0E0D6
:100F50008093500190935101A0935201B09353019B
:100F600084EB92E090934F0180934E01809170004A
:100F70008E7F809370008091B0008C7F8093B00052
:100F80008091B100877F8093B1008091B6008F7D02
:100F90008093B600809170008D7F80937000809167
:100FA000B10084608093B1008091B1008C7F809308
:100FB000B10086E090E09093550180935401109227
:100FC0005701109258011092590110925A01109233
:100FD000560180915401909155018093B200809107
:100FE0007000816080937000C0905B01D0905C01C4
:100FF000E0905D01F0905E01A7019601C701B60186
:101000000E94180B882319F086E191E01AC046016E
:101010005701E894B7F82FEF3FEF4FE75FE7C501BF
:10102000B4010E94180B81110FC02FEF3FEF4FE763
:101030005FE7C501B4010E94470918162CF48AE144
:1010400091E00E942D0582C02FEF3FEF4FE75FE454
:10105000C701B6010E94A60A18161CF48EE191E0A1
:10106000F0CF2FEF3FEF4FE75FECC701B6010E94D3
:10107000470987FDF3CF20E030E0A901C701B601A1
:101080000E94470987FF0FC0E0916801F091690154
:101090000190F081E02D6DE288E691E00995F7FA84
:1010A000F094F7F8F0942AE037ED43EA5BE3C701E8
:1010B000B6010E94DB084B015C010E94C5096B016F
:1010C0007C010E94F4099B01AC01C501B4010E949E
:1010D000DA084B015C014AE0C701B6010E943F05F6
:1010E000E0916801F09169010190F081E02D6EE2DC
:1010F00088E691E0099520E030E040E251E4C50146
:10110000B4010E94AB0A4B015C010E94C5096B014E
:10111000E12CF12C4AE0C701B6010E943F05C7014E
:10112000B6010E94F4099B01AC01C501B4010E9403
:10113000DA0820E030E040E251E40E94AB0A0E946D
:10114000C50980E090E04AE00E943F0582E291E01C
:101150000E942D050E948C0147CFE8E6F1E0138242
:10116000128288EE93E0A0E0B0E084839583A683AA
:10117000B78388E091E09183808385EC90E0958748
:10118000848784EC90E09787868780EC90E0918B51
:10119000808B81EC90E0938B828B82EC90E0958B3E
:1011A000848B86EC90E0978B868B118E128E138E3B
:1011B000148E08955058BB27AA270E94F2080C9459
:1011C0006C0A0E945E0A38F00E94650A20F039F429
:1011D0009F3F19F426F40C945B0A0EF4E095E7FBAC
:1011E0000C94550AE92F0E947D0A58F3BA1762073A
:1011F00073078407950720F079F4A6F50C949F0AED
:101200000EF4E0950B2EBA2FA02D0B01B901900121
:101210000C01CA01A0011124FF27591B99F0593F65
:1012200050F4503E68F11A16F040A22F232F342FAD
:101230004427585FF3CF469537952795A795F040FB
:101240005395C9F77EF41F16BA0B620B730B840B10
:10125000BAF09150A1F0FF0FBB1F661F771F881FC8
:10126000C2F70EC0BA0F621F731F841F48F4879520
:1012700077956795B795F7959E3F08F0B0CF939512
:10128000880F08F09927EE0F9795879508950E948B
:10129000310A08F481E008950E9460090C946C0AF8
:1012A0000E94650A58F00E945E0A40F029F45F3FF0
:1012B00029F00C94550A51110C94A00A0C945B0A65
:1012C0000E947D0A68F39923B1F3552391F3951B8E
:1012D000550BBB27AA2762177307840738F09F5F57
:1012E0005F4F220F331F441FAA1FA9F335D00E2EC4
:1012F0003AF0E0E832D091505040E695001CCAF731
:101300002BD0FE2F29D0660F771F881FBB1F2617F3
:1013100037074807AB07B0E809F0BB0B802DBF01CA
:10132000FF2793585F4F3AF09E3F510578F00C9499
:10133000550A0C94A00A5F3FE4F3983ED4F38695D7
:1013400077956795B795F7959F5FC9F7880F911DBA
:101350009695879597F90895E1E0660F771F881FA6
:10136000BB1F621773078407BA0720F0621B730B59
:10137000840BBA0BEE1F88F7E09508950E94C5090B
:101380006894B1110C94A00A08950E94850A88F00F
:101390009F5798F0B92F9927B751B0F0E1F0660F39
:1013A000771F881F991F1AF0BA95C9F714C0B1307A
:1013B00091F00E949F0AB1E008950C949F0A672F54
:1013C000782F8827B85F39F0B93FCCF386957795A9
:1013D0006795B395D9F73EF4909580957095619592
:1013E0007F4F8F4F9F4F0895E89409C097FB3EF4BD
:1013F00090958095709561957F4F8F4F9F4F992362
:10140000A9F0F92F96E9BB279395F69587957795DF
:101410006795B795F111F8CFFAF4BB0F11F460FF9F
:101420001BC06F5F7F4F8F4F9F4F16C0882311F0F7
:1014300096E911C0772321F09EE8872F762F05C00B
:10144000662371F096E8862F70E060E02AF09A95A6
:10145000660F771F881FDAF7880F9695879597F99B
:101460000895990F0008550FAA0BE0E8FEEF161635
:101470001706E807F907C0F012161306E407F50788
:1014800098F0621B730B840B950B39F40A2661F0FC
:10149000232B242B252B21F408950A2609F4A1409F
:1014A000A6958FEF811D811D089597F99F6780E8AC
:1014B00070E060E008959FEF80EC089500240A94A6
:1014C0001616170618060906089500240A9412161F
:1014D0001306140605060895092E0394000C11F452
:1014E000882352F0BB0F40F4BF2B11F460FF04C0FF
:1014F0006F5F7F4F8F4F9F4F089557FD9058440F58
:10150000551F59F05F3F71F04795880F97FB991F62
:1015100061F09F3F79F0879508951216130614061F
:10152000551FF2CF4695F1DF08C0161617061806AC
:10153000991FF1CF86957105610508940895E89487
:10154000BB2766277727CB0197F908950E94310AB8
:1015500008F48FEF08950E94BE0A0C946C0A0E9452
:101560005E0A38F00E94650A20F0952311F00C9471
:10157000550A0C945B0A11240C94A00A0E947D0A5F
:1015800070F3959FC1F3950F50E0551F629FF001D6
:10159000729FBB27F00DB11D639FAA27F00DB11DEF
:1015A000AA1F649F6627B00DA11D661F829F222778
:1015B000B00DA11D621F739FB00DA11D621F839FFF
:1015C000A00D611D221F749F3327A00D611D231FD5
:1015D000849F600D211D822F762F6A2F11249F5723
:1015E00050409AF0F1F088234AF0EE0FFF1FBB1F26
:1015F000661F771F881F91505040A9F79E3F5105E5
:1016000080F00C94550A0C94A00A5F3FE4F3983ED6
:10161000D4F3869577956795B795F795E7959F5F8E
:10162000C1F7FE2B880F911D9695879597F9089520
:101630000E94310A880B990B0895A1E21A2EAA1B69
:10164000BB1BFD010DC0AA1FBB1FEE1FFF1FA21772
:10165000B307E407F50720F0A21BB30BE40BF50B6F
:10166000661F771F881F991F1A9469F760957095F8
:10167000809590959B01AC01BD01CF010895EE0FBF
:10168000FF1F0590F491E02D099481E090E0F8941B
:081690000C944A0BF894FFCF03
:10169800B302B3020000000023018C00BB006A0102
:1016A800EC00CA00DE006E616E00696E66006F763F
:0616B80066000D0A0000AF
:107E0000112484B714BE81FFF0D085E080938100F7
:107E100082E08093C00088E18093C10086E0809377
:107E2000C20080E18093C4008EE0C9D0259A86E02C
:107E300020E33CEF91E0309385002093840096BBD3
:107E4000B09BFECF1D9AA8958150A9F7CC24DD24C4
:107E500088248394B5E0AB2EA1E19A2EF3E0BF2EE7
:107E6000A2D0813461F49FD0082FAFD0023811F036
:107E7000013811F484E001C083E08DD089C08234E0
:107E800011F484E103C0853419F485E0A6D080C0E4
:107E9000853579F488D0E82EFF2485D0082F10E0AE
:107EA000102F00270E291F29000F111F8ED06801E7
:107EB0006FC0863521F484E090D080E0DECF843638
:107EC00009F040C070D06FD0082F6DD080E0C81688
:107ED00080E7D80618F4F601B7BEE895C0E0D1E017
:107EE00062D089930C17E1F7F0E0CF16F0E7DF06D8
:107EF00018F0F601B7BEE89568D007B600FCFDCFD4
:107F0000A601A0E0B1E02C9130E011968C91119780
:107F100090E0982F8827822B932B1296FA010C0160
:107F200087BEE89511244E5F5F4FF1E0A038BF0790
:107F300051F7F601A7BEE89507B600FCFDCF97BE46
:107F4000E89526C08437B1F42ED02DD0F82E2BD052
:107F50003CD0F601EF2C8F010F5F1F4F84911BD097
:107F6000EA94F801C1F70894C11CD11CFA94CF0C13
:107F7000D11C0EC0853739F428D08EE10CD085E9AC
:107F80000AD08FE07ACF813511F488E018D01DD067
:107F900080E101D065CF982F8091C00085FFFCCF94
:107FA0009093C60008958091C00087FFFCCF809118
:107FB000C00084FD01C0A8958091C6000895E0E648
:107FC000F0E098E1908380830895EDDF803219F02E
:107FD00088E0F5DFFFCF84E1DECF1F93182FE3DFCA
:107FE0001150E9F7F2DF1F91089580E0E8DFEE27F6
:047FF000FF270994CA
:027FFE00040479
:0400000300007E007B
:00000001FF
