:100000000C9462000C9411070C94EA060C948A007C
:100010000C948A000C948A000C948A000C948A0038
:100020000C948A000C9438070C948A000C948A0073
:100030000C948A000C948A000C948A000C948A0018
:100040000C9448060C948A000C94B8060C94920602
:100050000C948A000C948A000C948A000C948A00F8
:100060000C948A000C948A000000000024002700F1
:100070002A0000000000250028002B0000000000DE
:1000800023002600290004040404040404040202DA
:100090000202020203030303030301020408102007
:1000A0004080010204081020010204081020000012
:1000B0000008000201000003040700000000000027
:1000C0000000E30811241FBECFEFD8E0DEBFCDBF94
:1000D00011E0A0E0B1E0E4E0F7E102C005900D928C
:1000E000A833B107D9F722E0A8E3B1E001C01D921F
:1000F000A731B207E1F710E0C2E6D0E004C02197D3
:10010000FE010E94750BC136D107C9F70E94AA07EC
:100110000C94800B0C940000CF92DF92EF92FF9230
:100120000F931F93CF93DF936C017A018B01C0E093
:10013000D0E0CE15DF0589F0D8016D918D01D60193
:10014000ED91FC910190F081E02DC6010995892B7C
:1001500011F47E0102C02196ECCFC701DF91CF914F
:100160001F910F91FF90EF90DF90CF900895089529
:1001700080E090E00895FC01538D448D252F30E000
:10018000842F90E0821B930B541710F0CF960895A4
:1001900001970895FC01918D828D981761F0828DF1
:1001A000DF01A80FB11D5D968C91928D9F5F9F73AB
:1001B000928F90E008958FEF9FEF0895FC01918D4D
:1001C000828D981731F0828DE80FF11D858D90E0BA
:1001D00008958FEF9FEF0895FC01918D228D892F57
:1001E00090E0805C9F4F821B91098F73992708953F
:1001F0008AE791E00E94EC0021E0892B09F420E0DD
:10020000822F0895FC01848DDF01A80FB11DA35A30
:10021000BF4F2C91848D90E001968F739927848F26
:10022000A689B7892C93A089B1898C9180648C931D
:10023000938D848D981306C00288F389E02D808108
:100240008F7D80830895EF92FF920F931F93CF933A
:10025000DF93EC0181E0888F9B8D8C8D981305C016
:10026000E889F989808185FD24C0F62E0B8D10E088
:100270000F5F1F4F0F731127E02E8C8DE8120CC0FB
:100280000FB607FCFACFE889F989808185FFF5CFA1
:10029000CE010E940201F1CF8B8DFE01E80FF11D0E
:1002A000E35AFF4FF0820B8FEA89FB8980818062DD
:1002B00007C0EE89FF896083E889F98980818064BD
:1002C000808381E090E0DF91CF911F910F91FF90AB
:1002D000EF900895CF93DF93EC01888D8823C9F0C8
:1002E000EA89FB89808185FD05C0A889B9898C913F
:1002F00086FD0FC00FB607FCF5CF808185FFF2CFDA
:10030000A889B9898C9185FFEDCFCE010E940201A9
:10031000E7CFDF91CF91089580E090E0892B29F01D
:100320000E94F80081110C9400000895833081F040
:1003300028F4813099F08230A1F008958730A9F037
:100340008830B9F08430D1F4809180008F7D03C073
:10035000809180008F7780938000089584B58F7797
:1003600002C084B58F7D84BD08958091B0008F77E1
:1003700003C08091B0008F7D8093B0000895CF932B
:10038000DF93282F30E0F901E255FF4F8491F90106
:10039000E656FF4FD491F901EA57FF4FC491CC23A1
:1003A00091F081110E949601EC2FF0E0EE0FFF1FFB
:1003B000E458FF4FA591B491EC91ED2381E090E0DA
:1003C00021F480E002C080E090E0DF91CF910895B9
:1003D0001F93CF93DF93282F30E0F901E255FF4FB1
:1003E0008491F901E656FF4FD491F901EA57FF4F86
:1003F000C491CC23C9F0162F81110E949601EC2FD5
:10040000F0E0EE0FFF1FEE58FF4FA591B4918FB7AC
:10041000F894111105C09C91ED2FE095E92302C0DD
:10042000EC91ED2BEC938FBFDF91CF911F9108954D
:10043000CF93DF9390E0FC01E656FF4F2491FC013F
:10044000EA57FF4F8491882361F190E0880F991F4C
:10045000FC01E859FF4FC591D491FC01EE58FF4FC4
:10046000A591B491611109C09FB7F8948881209536
:1004700082238883EC912E230BC0623061F49FB7F6
:10048000F8943881822F809583238883EC912E2BDA
:100490002C939FBF06C08FB7F894E8812E2B28833A
:1004A0008FBFDF91CF9108951F93CF93DF93182FC4
:1004B000EB0161E00E941802209711F460E004C093
:1004C000CF3FD10539F461E0812FDF91CF911F91AA
:1004D0000C94E801E12FF0E0E255FF4FE491E330A6
:1004E000F9F048F4E130B9F0E230A1F584B580626A
:1004F00084BDC8BD34C0E730E9F0E83019F1E4301C
:1005000049F580918000806280938000D0938B00B9
:10051000C0938A0024C084B5806884BDC7BD1FC055
:1005200080918000806880938000D0938900C09380
:10053000880015C08091B00080688093B000C0939F
:10054000B3000DC08091B00080628093B000C09372
:10055000B40005C0C038D1050CF0B5CFAFCFDF91E6
:10056000CF911F91089508954F925F926F927F925D
:100570008F929F92AF92BF92CF92DF92EF92FF92B3
:100580000F931F93CF93DF9300D000D0CDB7DEB78A
:10059000609158017091590180915A0190915B01CD
:1005A0000E942C0A9B01AC010E941109905826E57B
:1005B0003EE049E450E40E94E10A9B01AC010E9444
:1005C00011092BEA3AEA46EA52E40E94E10A20E0E5
:1005D00030E043E454E40E9482096093690170931F
:1005E0006A0180936B0190936C01109258011092F4
:1005F000590110925A0110925B016091540170915F
:10060000550180915601909157010E942C0A9B013F
:10061000AC010E94110926E53EE049E450E40E9445
:10062000E10A9B01AC010E9411092BEA3AEA46EA71
:1006300052E40E94E10A20E030E043E454E40E94E6
:10064000820960936D0170936E0180936F019093A6
:10065000700110925401109255011092560110929F
:1006600057012091690130916A0140916B015091CD
:100670006C0160E070E080EA91E40E9410094B0197
:100680005C0140904401509045016090460170909B
:10069000470126E535ED42E852E40E94E10A6B018C
:1006A0007C0125E535E547E352ECC301B2010E9428
:1006B000E10A9B01AC01C701B6010E9411096B015F
:1006C0007C012BEA3AEA46E251E4609140017091E4
:1006D000410180914201909143010E94E10A9B01F6
:1006E000AC01C701B6010E94110920913C01309173
:1006F0003D0140913E0150913F010E9411096B0163
:100700007C0120E030E04FE753E40E94DC0A181639
:100710008CF020E030E04FE753ECC701B6010E94B7
:100720007D0987FF0DC0C12CD12C3FE7E32E33ECB0
:10073000F32E06C0C12CD12C2FE7E22E23E4F22E9B
:10074000C0923C01D0923D01E0923E01F0923F0107
:1007500040924001509241016092420170924301E7
:100760008092440190924501A0924601B0924701C7
:10077000C701B6010E94F40969837A838B839C8345
:1007800009811A8120916D0130916E0140916F01B4
:100790005091700160E070E080EA91E40E941009DD
:1007A0002B013C018090500190905101A09052018A
:1007B000B090530120E030E04CE553E40E94E10AA0
:1007C0006B017C0120E030E048EC52ECC501B40143
:1007D0000E94E10A9B01AC01C701B6010E94110908
:1007E0006B017C0120E030E0A90160914C01709127
:1007F0004D0180914E0190914F010E94E10A9B01B1
:10080000AC01C701B6010E94110920914801309145
:10081000490140914A0150914B010E9411096B011D
:100820007C0120E030E04FE753E40E94DC0A181618
:100830008CF020E030E04FE753ECC701B6010E9496
:100840007D0987FF0DC0C12CD12C9FE7E92E93ECC9
:10085000F92E06C0C12CD12C8FE7E82E83E4F82EA8
:10086000C0924801D0924901E0924A01F0924B01B6
:1008700080924C0190924D01A0924E01B0924F0196
:100880004092500150925101609252017092530176
:10089000C701B6010E94F4092B013C017B0110162F
:1008A00011065CF460E086E00E94E80161E085E00A
:1008B0000E94E80169817A810DC061E086E00E94B2
:1008C000E80160E085E00E94E80169817A81719524
:1008D000619571098AE00E9454021E141F0454F4A9
:1008E00061E087E00E94E80160E088E00E94E801A2
:1008F000B2010CC060E087E00E94E80161E088E09E
:100900000E94E801662777276419750989E00F902E
:100910000F900F900F90DF91CF911F910F91FF904B
:10092000EF90DF90CF90BF90AF909F908F907F908F
:100930006F905F904F900C94540280913A01909187
:100940003B01019690933B0180933A0183E00E9422
:10095000BF01892B31F48CE00E94BF01892B31F457
:1009600011C08CE00E94BF01892B61F48091540179
:1009700090915501A0915601B09157010196A11D8A
:10098000B11D0BC08091540190915501A091560169
:10099000B09157010197A109B10980935401909337
:1009A0005501A0935601B0935701089580913801E5
:1009B000909139010196909339018093380182E03A
:1009C0000E94BF01892B31F48BE00E94BF01892B6B
:1009D00031F411C08CE00E94BF01892B61F4809139
:1009E000580190915901A0915A01B0915B01019673
:1009F000A11DB11D0BC08091580190915901A0918A
:100A00005A01B0915B010197A109B1098093580186
:100A100090935901A0935A01B0935B0108950097F8
:100A200069F0FC0101900020E9F73197AF01481B04
:100A3000590BBC018AE791E00C948C0080E090E0B7
:100A400008958F929F92AF92BF920F931F93CF936F
:100A5000DF93CDB7DEB7A1970FB6F894DEBF0FBE18
:100A6000CDBF19A2423008F44AE08E010F5D1F4F3E
:100A7000842E912CA12CB12CA50194010E94530B22
:100A8000E62FB901CA0101501109EA3014F4E05D02
:100A900001C0E95CD801EC93232B242B252B61F7B3
:100AA000C8010E940F05A1960FB6F894DEBF0FBED5
:100AB000CDBFDF91CF911F910F91BF90AF909F90CD
:100AC0008F9008954F925F926F927F928F929F9234
:100AD000AF92BF92CF92DF92EF92FF926B017C01B7
:100AE000B42E9B01AC010E944E0B882319F086E1C5
:100AF00091E027C026013701E89477F82FEF3FEF08
:100B00004FE75FE7C301B2010E944E0B81110DC098
:100B10002FEF3FEF4FE75FE7C301B2010E947D096E
:100B200018161CF48AE191E00CC02FEF3FEF4FE75D
:100B30005FE4C701B6010E94DC0A181684F48EE156
:100B400091E0FF90EF90DF90CF90BF90AF909F909B
:100B50008F907F906F905F904F900C940F052FEFC8
:100B60003FEF4FE75FECC701B6010E947D0987FDAB
:100B7000E6CF20E030E0A901C701B6010E947D095F
:100B800087FF11C0E0917A01F0917B010190F08123
:100B9000E02D6DE28AE791E009954C01F7FAF094B7
:100BA000F7F8F09402C0812C912CA12C60E070E049
:100BB00080E09FE3AB1441F020E030E040E251E4FC
:100BC0000E948209A394F6CF9B01AC01C701B60134
:100BD0000E9411092B013C010E94FB096B017C0161
:100BE0000E942A0A9B01AC01C301B2010E941009B4
:100BF0002B013C014AE0C701B6010E9421057C019E
:100C0000E80CF91CBB2069F0E0917A01F0917B01BE
:100C10000190F081E02D6EE28AE791E00995E80EFF
:100C2000F91EDB2CDD2021F120E030E040E251E430
:100C3000C301B2010E94E10A2B013C010E94FB09A1
:100C40004B01A12CB12C4AE0C501B4010E94210541
:100C5000E80EF91EC501B4010E942A0A9B01AC01ED
:100C6000C301B2010E9410092B013C01DA94DACFD2
:100C7000C701FF90EF90DF90CF90BF90AF909F9013
:100C80008F907F906F905F904F9008950E947B0BA4
:100C90001F920F920FB60F9211242F933F938F93B1
:100CA0009F93AF93BF938091760190917701A0912C
:100CB0007801B09179013091750123E0230F2D3730
:100CC00020F40196A11DB11D05C026E8230F029650
:100CD000A11DB11D2093750180937601909377013A
:100CE000A0937801B0937901809171019091720184
:100CF000A0917301B09174010196A11DB11D809363
:100D0000710190937201A0937301B0937401BF912C
:100D1000AF919F918F913F912F910F900FBE0F90A8
:100D20001F9018951F920F920FB60F9211242F93B8
:100D30003F934F935F936F937F938F939F93AF9363
:100D4000BF93EF93FF938AE791E00E940201FF9126
:100D5000EF91BF91AF919F918F917F916F915F9133
:100D60004F913F912F910F900FBE0F901F901895AC
:100D70001F920F920FB60F9211242F938F939F9370
:100D8000EF93FF93E0918A01F0918B018081E091D4
:100D90009001F091910182FD12C0908180919301A8
:100DA0008F5F8F7320919401821751F0E09193012E
:100DB000F0E0E658FE4F958F8093930101C080814B
:100DC000FF91EF919F918F912F910F900FBE0F90F8
:100DD0001F9018951F920F920FB60F9211242F9308
:100DE0003F934F935F936F937F938F939F93AF93B3
:100DF000BF93EF93FF93E0910201F09103010995F6
:100E0000FF91EF91BF91AF919F918F917F916F91E2
:100E10005F914F913F912F910F900FBE0F901F90B8
:100E200018951F920F920FB60F9211242F933F9394
:100E30004F935F936F937F938F939F93AF93BF93E2
:100E4000EF93FF93E0910001F09101010995FF916B
:100E5000EF91BF91AF919F918F917F916F915F9132
:100E60004F913F912F910F900FBE0F901F901895AB
:100E70001F920F920FB60F9211242F933F934F930F
:100E80005F936F937F938F939F93AF93BF93EF93F2
:100E9000FF9380916201909163018093B2008091F1
:100EA000650190916601A0916701B091680101967A
:100EB000A11DB11D8093650190936601A093670108
:100EC000B09368018091650190916601A0916701DE
:100ED000B091680140915E0150915F0160916001A5
:100EE0007091610184179507A607B70710F18091EB
:100EF000640181111EC081E08093640180916501CD
:100F000090916601A0916701B0916801841B950BD7
:100F1000A60BB70B8093650190936601A0936701C0
:100F2000B0936801E0915C01F0915D010995109228
:100F30006401FF91EF91BF91AF919F918F917F914C
:100F40006F915F914F913F912F910F900FBE0F9036
:100F50001F901895789484B5826084BD84B58160B3
:100F600084BD85B5826085BD85B5816085BD809174
:100F70006E00816080936E001092810080918100EC
:100F800082608093810080918100816080938100E4
:100F9000809180008160809380008091B1008460A6
:100FA0008093B1008091B00081608093B000809107
:100FB0007A00846080937A0080917A0082608093C6
:100FC0007A0080917A00816080937A0080917A0023
:100FD000806880937A001092C10080918100887FA0
:100FE00081608093810061E087E00E94180261E0E7
:100FF00088E00E94180261E089E00E94180261E026
:1010000086E00E94180261E085E00E94180261E01B
:101010008AE00E94180260E082E00E94180260E00C
:101020008BE00E94180260E083E00E94180260E0FA
:101030008CE00E941802E0918A01F0918B0182E01D
:101040008083E0918601F09187011082E091880110
:10105000F09189018FEC808310929201E0918E01D2
:10106000F0918F0186E08083E0918C01F0918D01F9
:10107000808180618083E0918C01F0918D0180817D
:1010800088608083E0918C01F0918D01808180687F
:101090008083E0918C01F0918D0180818F7D808330
:1010A00086ED94E0909301018093000180916900A6
:1010B0008C7F816080936900E89A8DE994E0909339
:1010C00003018093020180916900837F8460809393
:1010D0006900E99A8CE090E0A0E0B0E080935E01C6
:1010E00090935F01A0936001B093610184EB92E063
:1010F00090935D0180935C01809170008E7F80935E
:1011000070008091B0008C7F8093B0008091B1001E
:10111000877F8093B1008091B6008F7D8093B60069
:10112000809170008D7F809370008091B100846009
:101130008093B1008091B1008C7F8093B10086E0F4
:1011400090E0909363018093620110926501109288
:1011500066011092670110926801109264018091FB
:101160006201909163018093B20080917000816070
:101170008093700082E291E00E940F0560916D0102
:1011800070916E0180916F019091700142E00E9418
:1011900062058BE291E00E940F058DE291E00E94D2
:1011A0000F056091690170916A0180916B019091C6
:1011B0006C0142E00E94620585E391E00E940F0508
:1011C0000E948C01D7CFEAE7F1E01382128288EE09
:1011D00093E0A0E0B0E084839583A683B78388E0A2
:1011E00091E09183808385EC90E09587848784ECFF
:1011F00090E09787868780EC90E0918B808B81ECE4
:1012000090E0938B828B82EC90E0958B848B86ECC4
:1012100090E0978B868B118E128E138E148E08950C
:101220005058BB27AA270E9428090C94A20A0E94A2
:10123000940A38F00E949B0A20F039F49F3F19F479
:1012400026F40C94910A0EF4E095E7FB0C948B0ABB
:10125000E92F0E94B30A58F3BA176207730784078D
:10126000950720F079F4A6F50C94D50A0EF4E095D4
:101270000B2EBA2FA02D0B01B90190010C01CA0150
:10128000A0011124FF27591B99F0593F50F4503EFB
:1012900068F11A16F040A22F232F342F4427585FED
:1012A000F3CF469537952795A795F0405395C9F705
:1012B0007EF41F16BA0B620B730B840BBAF09150BD
:1012C000A1F0FF0FBB1F661F771F881FC2F70EC05C
:1012D000BA0F621F731F841F48F48795779567952F
:1012E000B795F7959E3F08F0B0CF9395880F08F01B
:1012F0009927EE0F9795879508950E94670A08F43D
:1013000081E008950E9496090C94A20A0E949B0A0B
:1013100058F00E94940A40F029F45F3F29F00C94A1
:101320008B0A51110C94D60A0C94910A0E94B30AAC
:1013300068F39923B1F3552391F3951B550BBB2704
:10134000AA2762177307840738F09F5F5F4F220F49
:10135000331F441FAA1FA9F335D00E2E3AF0E0E840
:1013600032D091505040E695001CCAF72BD0FE2F8A
:1013700029D0660F771F881FBB1F2617370748071E
:10138000AB07B0E809F0BB0B802DBF01FF279358D6
:101390005F4F3AF09E3F510578F00C948B0A0C9405
:1013A000D60A5F3FE4F3983ED4F386957795679528
:1013B000B795F7959F5FC9F7880F911D969587950B
:1013C00097F90895E1E0660F771F881FBB1F62172A
:1013D00073078407BA0720F0621B730B840BBA0BE8
:1013E000EE1F88F7E09508950E94FB096894B111FB
:1013F0000C94D60A08950E94BB0A88F09F5798F073
:10140000B92F9927B751B0F0E1F0660F771F881F09
:10141000991F1AF0BA95C9F714C0B13091F00E9423
:10142000D50AB1E008950C94D50A672F782F882744
:10143000B85F39F0B93FCCF3869577956795B3954A
:10144000D9F73EF490958095709561957F4F8F4FB9
:101450009F4F0895E89409C097FB3EF490958095BE
:10146000709561957F4F8F4F9F4F9923A9F0F92F6A
:1014700096E9BB279395F695879577956795B795E8
:10148000F111F8CFFAF4BB0F11F460FF1BC06F5FCE
:101490007F4F8F4F9F4F16C0882311F096E911C0E0
:1014A000772321F09EE8872F762F05C0662371F001
:1014B00096E8862F70E060E02AF09A95660F771F15
:1014C000881FDAF7880F9695879597F90895990FF1
:1014D0000008550FAA0BE0E8FEEF16161706E807FE
:1014E000F907C0F012161306E407F50798F0621B1F
:1014F000730B840B950B39F40A2661F0232B242BF4
:10150000252B21F408950A2609F4A140A6958FEF12
:10151000811D811D089597F99F6780E870E060E064
:1015200008959FEF80EC089500240A94161617067C
:1015300018060906089500240A94121613061406C4
:1015400005060895092E0394000C11F4882352F027
:10155000BB0F40F4BF2B11F460FF04C06F5F7F4FDF
:101560008F4F9F4F089557FD9058440F551F59F0C6
:101570005F3F71F04795880F97FB991F61F09F3F80
:1015800079F087950895121613061406551FF2CFA9
:101590004695F1DF08C0161617061806991FF1CFF9
:1015A00086957105610508940895E894BB27662720
:1015B0007727CB0197F908950E94670A08F48FEF07
:1015C00008950E94F40A0C94A20A0E94940A38F02A
:1015D0000E949B0A20F0952311F00C948B0A0C9426
:1015E000910A11240C94D60A0E94B30A70F3959FB5
:1015F000C1F3950F50E0551F629FF001729FBB270A
:10160000F00DB11D639FAA27F00DB11DAA1F649FA5
:101610006627B00DA11D661F829F2227B00DA11D58
:10162000621F739FB00DA11D621F839FA00D611DDE
:10163000221F749F3327A00D611D231F849F600DFF
:10164000211D822F762F6A2F11249F5750409AF028
:10165000F1F088234AF0EE0FFF1FBB1F661F771FB4
:10166000881F91505040A9F79E3F510580F00C947F
:101670008B0A0C94D60A5F3FE4F3983ED4F3869528
:1016800077956795B795F795E7959F5FC1F7FE2B1F
:10169000880F911D9695879597F908950E94670A7E
:1016A000880B990B0895A1E21A2EAA1BBB1BFD0102
:1016B0000DC0AA1FBB1FEE1FFF1FA217B307E40731
:1016C000F50720F0A21BB30BE40BF50B661F771F89
:1016D000881F991F1A9469F7609570958095909569
:1016E0009B01AC01BD01CF010895EE0FFF1F0590D6
:1016F000F491E02D099481E090E0F8940C94800B33
:04170000F894FFCF8B
:10170400B302B3020000000023018C00BB006A0195
:10171400EC00CA00DE006E616E00696E66006F76D2
:1017240066006C65667420763A20002C0072696746
:0817340068742076000D0A0024
:00000001FF
