:100000000C9462000C94F1070C94CA070C948A00BB
:100010000C948A000C948A000C948A000C948A0038
:100020000C948A000C9418080C948A000C948A0092
:100030000C948A000C948A000C948A000C948A0018
:100040000C9428070C948A000C9498070C9472075F
:100050000C948A000C948A000C948A000C948A00F8
:100060000C948A000C948A000000000024002700F1
:100070002A0000000000250028002B0000000000DE
:1000800023002600290004040404040404040202DA
:100090000202020203030303030301020408102007
:1000A0004080010204081020010204081020000012
:1000B0000008000201000003040700000000000027
:1000C0000000D70911241FBECFEFD8E0DEBFCDBF9F
:1000D00011E0A0E0B1E0ECEEF8E102C005900D9275
:1000E000A033B107D9F722E0A0E3B1E001C01D922F
:1000F000AF30B207E1F710E0C2E6D0E004C02197CC
:10010000FE010E94690CC136D107C9F70E948A0816
:100110000C94740C0C940000CF92DF92EF92FF923B
:100120000F931F93CF93DF936C017A018B01C0E093
:10013000D0E0CE15DF0589F0D8016D918D01D60193
:10014000ED91FC910190F081E02DC6010995892B7C
:1001500011F47E0102C02196ECCFC701DF91CF914F
:100160001F910F91FF90EF90DF90CF900895089529
:1001700080E090E00895FC01538D448D252F30E000
:10018000842F90E0821B930B541710F0CF960895A4
:1001900001970895FC01918D828D981761F0828DF1
:1001A000DF01A80FB11D5D968C91928D9F5F9F73AB
:1001B000928F90E008958FEF9FEF0895FC01918D4D
:1001C000828D981731F0828DE80FF11D858D90E0BA
:1001D00008958FEF9FEF0895FC01918D228D892F57
:1001E00090E0805C9F4F821B91098F73992708953F
:1001F00082E791E00E94EC0021E0892B09F420E0E5
:10020000822F0895FC01848DDF01A80FB11DA35A30
:10021000BF4F2C91848D90E001968F739927848F26
:10022000A689B7892C93A089B1898C9180648C931D
:10023000938D848D981306C00288F389E02D808108
:100240008F7D80830895EF92FF920F931F93CF933A
:10025000DF93EC0181E0888F9B8D8C8D981305C016
:10026000E889F989808185FD24C0F62E0B8D10E088
:100270000F5F1F4F0F731127E02E8C8DE8120CC0FB
:100280000FB607FCFACFE889F989808185FFF5CFA1
:10029000CE010E940201F1CF8B8DFE01E80FF11D0E
:1002A000E35AFF4FF0820B8FEA89FB8980818062DD
:1002B00007C0EE89FF896083E889F98980818064BD
:1002C000808381E090E0DF91CF911F910F91FF90AB
:1002D000EF900895CF93DF93EC01888D8823C9F0C8
:1002E000EA89FB89808185FD05C0A889B9898C913F
:1002F00086FD0FC00FB607FCF5CF808185FFF2CFDA
:10030000A889B9898C9185FFEDCFCE010E940201A9
:10031000E7CFDF91CF91089580E090E0892B29F01D
:100320000E94F80081110C9400000895833081F040
:1003300028F4813099F08230A1F008958730A9F037
:100340008830B9F08430D1F4809180008F7D03C073
:10035000809180008F7780938000089584B58F7797
:1003600002C084B58F7D84BD08958091B0008F77E1
:1003700003C08091B0008F7D8093B0000895CF932B
:10038000DF93282F30E0F901E255FF4F8491F90106
:10039000E656FF4FD491F901EA57FF4FC491CC23A1
:1003A00091F081110E949601EC2FF0E0EE0FFF1FFB
:1003B000E458FF4FA591B491EC91ED2381E090E0DA
:1003C00021F480E002C080E090E0DF91CF910895B9
:1003D0001F93CF93DF93282F30E0F901E255FF4FB1
:1003E0008491F901E656FF4FD491F901EA57FF4F86
:1003F000C491CC23C9F0162F81110E949601EC2FD5
:10040000F0E0EE0FFF1FEE58FF4FA591B4918FB7AC
:10041000F894111105C09C91ED2FE095E92302C0DD
:10042000EC91ED2BEC938FBFDF91CF911F9108954D
:10043000CF93DF9390E0FC01E656FF4F2491FC013F
:10044000EA57FF4F8491882361F190E0880F991F4C
:10045000FC01E859FF4FC591D491FC01EE58FF4FC4
:10046000A591B491611109C09FB7F8948881209536
:1004700082238883EC912E230BC0623061F49FB7F6
:10048000F8943881822F809583238883EC912E2BDA
:100490002C939FBF06C08FB7F894E8812E2B28833A
:1004A0008FBFDF91CF9108951F93CF93DF93182FC4
:1004B000EB0161E00E941802209711F460E004C093
:1004C000CF3FD10539F461E0812FDF91CF911F91AA
:1004D0000C94E801E12FF0E0E255FF4FE491E330A6
:1004E000F9F048F4E130B9F0E230A1F584B580626A
:1004F00084BDC8BD34C0E730E9F0E83019F1E4301C
:1005000049F580918000806280938000D0938B00B9
:10051000C0938A0024C084B5806884BDC7BD1FC055
:1005200080918000806880938000D0938900C09380
:10053000880015C08091B00080688093B000C0939F
:10054000B3000DC08091B00080628093B000C09372
:10055000B40005C0C038D1050CF0B5CFAFCFDF91E6
:10056000CF911F91089508952F923F924F925F92DD
:100570006F927F928F929F92AF92BF92CF92DF92B3
:10058000EF92FF920F931F93CF93DF9300D000D091
:10059000CDB7DEB78EE00E94BF0183E10E94BF01AC
:1005A000BB24B394892B09F0B12C86E00E94BF01D3
:1005B000AA24A394892B09F0A12C87E00E94BF01F3
:1005C000FF24F394892B09F0F12C88E00E94BF01ED
:1005D00001E0892B09F000E08BE00E94BF0111E0EF
:1005E000892B09F010E08DE00E94BF01609150015D
:1005F0007091510180915201909153010E94200B02
:100600009B01AC010E94050A26E53EE049E450E466
:100610000E94D50B9B01AC010E94050A20E030E04E
:1006200048EC52E40E94D50B20E030E043E454E46F
:100630000E94760A60936101709362018093630166
:100640009093640110925001109251011092520146
:100650001092530160914C0170914D0180914E01B7
:1006600090914F010E94200B9B01AC010E94050A52
:1006700026E53EE049E450E40E94D50B9B01AC0125
:100680000E94050A20E030E048EC52E40E94D50BBD
:1006900020E030E043E454E40E94760A6093650170
:1006A00070936601809367019093680110924C01EA
:1006B00010924D0110924E0110924F01B11015C0D1
:1006C000A11026C0F11026C001113FC011113DC07C
:1006D00080E090E0A0E2B1EC8093040190930501EA
:1006E000A0930601B093070127C0FF2071F180E0BD
:1006F00090E0A0EFB1E48093040190930501A093F2
:100700000601B093070180E090E0A0EFB1EC14C0C7
:10071000FF20D9F01123C9F080E090E0ACE0B2EC0A
:100720008093040190930501A0930601B093070103
:1007300080E090E0ACE0B2E480930001909301018E
:10074000A0930201B09303014DC0C0900401D0906A
:100750000501E0900601F090070126E0A29EC0018D
:1007600011244AE0B49E800D911D11244AEF4003EC
:1007700090011124820F931F46EF41039001112431
:10078000820F931FBC01990F880B990B0E94200BBD
:1007900020E030E040E05FE30E94D50B4B015C01BC
:1007A0009B01AC01C701B6010E94050A60930401D8
:1007B00070930501809306019093070160910001F9
:1007C000709101018091020190910301A5019401B2
:1007D0000E94040A6093000170930101809302015A
:1007E0009093030120916101309162014091630176
:1007F000509164016091040170910501809106019E
:10080000909107010E94040A4B015C0140903C0159
:1008100050903D0160903E0170903F0120E030E03B
:1008200042E052E40E94D50B6B017C0120E030E0F5
:1008300040E252ECC301B2010E94D50B9B01AC0116
:10084000C701B6010E94050A6B017C0120E030E07F
:1008500040E251E4609138017091390180913A0190
:1008600090913B010E94D50B9B01AC01C701B601E1
:100870000E94050A209134013091350140913601E2
:10088000509137010E94050A6B017C0120E030E0A5
:100890004FE753E40E94D00B18168CF020E030E0B4
:1008A0004FE753ECC701B6010E94710A87FF0DC0E4
:1008B000C12CD12C3FE7E32E33ECF32E06C0C12C24
:1008C000D12C2FE7E22E23E4F22EC0923401D092F5
:1008D0003501E0923601F092370140923801509292
:1008E000390160923A0170923B0180923C019092F2
:1008F0003D01A0923E01B0923F01C701B6010E94A6
:10090000E80A69837A838B839C8329803A802091CB
:1009100065013091660140916701509168016091D5
:1009200000017091010180910201909103010E94E8
:10093000040A2B013C018090480190904901A0904D
:100940004A01B0904B0120E030E042E851E40E94BF
:10095000D50B6B017C0120E030E040EA51ECC50191
:10096000B4010E94D50B9B01AC01C701B6010E94E6
:10097000050A6B017C0120E030E040EA50E4609120
:1009800044017091450180914601909147010E9478
:10099000D50B9B01AC01C701B6010E94050A20914D
:1009A00040013091410140914201509143010E9428
:1009B000050A6B017C0120E030E04FE753E40E9420
:1009C000D00B18168CF020E030E04FE753ECC70155
:1009D000B6010E94710A87FF0DC0C12CD12C9FE780
:1009E000E92E93ECF92E06C0C12CD12C8FE7E82E0E
:1009F00083E4F82EC0924001D0924101E09242017E
:100A0000F09243018092440190924501A0924601E8
:100A1000B0924701409248015092490160924A01C8
:100A200070924B01C701B6010E94E80A6B017C017C
:100A30008B0180E090E0A0EAB0E480930401909301
:100A40000501A0930601B0930701809300019093E4
:100A50000101A0930201B0930301121413045CF48A
:100A600060E080E10E94E80161E08FE00E94E8011F
:100A700069817A810DC061E080E10E94E80160E057
:100A80008FE00E94E80169817A8171956195710911
:100A90008AE00E9454021016110654F461E082E1CB
:100AA0000E94E80160E081E10E94E801B6010CC00B
:100AB00060E082E10E94E80161E081E10E94E801DA
:100AC000662777276C197D0989E00F900F900F90AA
:100AD0000F90DF91CF911F910F91FF90EF90DF90DA
:100AE000CF90BF90AF909F908F907F906F905F90CE
:100AF0004F903F902F900C9454028091320190912E
:100B000033010196909333018093320182E00E9479
:100B1000BF01892B31F485E00E94BF01892B31F49C
:100B200011C085E00E94BF01892B61F480914C01C6
:100B300090914D01A0914E01B0914F010196A11DE0
:100B4000B11D0BC080914C0190914D01A0914E01BF
:100B5000B0914F010197A109B10980934C01909385
:100B60004D01A0934E01B0934F0108958091300143
:100B7000909131010196909331018093300183E08F
:100B80000E94BF01892B31F484E00E94BF01892BB0
:100B900031F411C085E00E94BF01892B61F480917E
:100BA000500190915101A0915201B09153010196D1
:100BB000A11DB11D0BC08091500190915101A091D8
:100BC0005201B09153010197A109B10980935001DD
:100BD00090935101A0935201B0935301089500974F
:100BE00069F0FC0101900020E9F73197AF01481B43
:100BF000590BBC0182E791E00C948C0080E090E0FE
:100C000008958F929F92AF92BF920F931F93CF93AD
:100C1000DF93CDB7DEB7A1970FB6F894DEBF0FBE56
:100C2000CDBF19A2423008F44AE08E010F5D1F4F7C
:100C3000842E912CA12CB12CA50194010E94470C6B
:100C4000E62FB901CA0101501109EA3014F4E05D40
:100C500001C0E95CD801EC93232B242B252B61F7F1
:100C6000C8010E94EF05A1960FB6F894DEBF0FBE33
:100C7000CDBFDF91CF911F910F91BF90AF909F900B
:100C80008F9008954F925F926F927F928F929F9272
:100C9000AF92BF92CF92DF92EF92FF926B017C01F5
:100CA000B42E9B01AC010E94420C882319F08EE106
:100CB00091E027C026013701E89477F82FEF3FEF46
:100CC0004FE75FE7C301B2010E94420C81110DC0E2
:100CD0002FEF3FEF4FE75FE7C301B2010E94710AB8
:100CE00018161CF482E291E00CC02FEF3FEF4FE7A3
:100CF0005FE4C701B6010E94D00B181684F486E2A7
:100D000091E0FF90EF90DF90CF90BF90AF909F90D9
:100D10008F907F906F905F904F900C94EF052FEF26
:100D20003FEF4FE75FECC701B6010E94710A87FDF4
:100D3000E6CF20E030E0A901C701B6010E94710AA8
:100D400087FF11C0E0917201F09173010190F08171
:100D5000E02D6DE282E791E009954C01F7FAF094FD
:100D6000F7F8F09402C0812C912CA12C60E070E087
:100D700080E09FE3AB1441F020E030E040E251E43A
:100D80000E94760AA394F6CF9B01AC01C701B6017D
:100D90000E94050A2B013C010E94EF0A6B017C01B5
:100DA0000E941E0B9B01AC01C301B2010E94040A08
:100DB0002B013C014AE0C701B6010E9401067C01FB
:100DC000E80CF91CBB2069F0E0917201F09173010D
:100DD0000190F081E02D6EE282E791E00995E80E46
:100DE000F91EDB2CDD2021F120E030E040E251E46F
:100DF000C301B2010E94D50B2B013C010E94EF0AF6
:100E00004B01A12CB12C4AE0C501B4010E9401069E
:100E1000E80EF91EC501B4010E941E0B9B01AC0136
:100E2000C301B2010E94040A2B013C01DA94DACF1B
:100E3000C701FF90EF90DF90CF90BF90AF909F9051
:100E40008F907F906F905F904F9008950E946F0CED
:100E50001F920F920FB60F9211242F933F938F93EF
:100E60009F93AF93BF9380916E0190916F01A0917A
:100E70007001B091710130916D0123E0230F2D3786
:100E800020F40196A11DB11D05C026E8230F02968E
:100E9000A11DB11D20936D0180936E0190936F0190
:100EA000A0937001B09371018091690190916A01E2
:100EB000A0916B01B0916C010196A11DB11D8093B1
:100EC000690190936A01A0936B01B0936C01BF918B
:100ED000AF919F918F913F912F910F900FBE0F90E7
:100EE0001F9018951F920F920FB60F9211242F93F7
:100EF0003F934F935F936F937F938F939F93AF93A2
:100F0000BF93EF93FF9382E791E00E940201FF916C
:100F1000EF91BF91AF919F918F917F916F915F9171
:100F20004F913F912F910F900FBE0F901F901895EA
:100F30001F920F920FB60F9211242F938F939F93AE
:100F4000EF93FF93E0918201F09183018081E09122
:100F50008801F091890182FD12C0908180918B01FE
:100F60008F5F8F7320918C01821751F0E0918B017C
:100F7000F0E0EE58FE4F958F80938B0101C0808189
:100F8000FF91EF919F918F912F910F900FBE0F9036
:100F90001F9018951F920F920FB60F9211242F9346
:100FA0003F934F935F936F937F938F939F93AF93F1
:100FB000BF93EF93FF93E0910A01F0910B01099524
:100FC000FF91EF91BF91AF919F918F917F916F9121
:100FD0005F914F913F912F910F900FBE0F901F90F7
:100FE00018951F920F920FB60F9211242F933F93D3
:100FF0004F935F936F937F938F939F93AF93BF9321
:10100000EF93FF93E0910801F09109010995FF9199
:10101000EF91BF91AF919F918F917F916F915F9170
:101020004F913F912F910F900FBE0F901F901895E9
:101030001F920F920FB60F9211242F933F934F934D
:101040005F936F937F938F939F93AF93BF93EF9330
:10105000FF9380915A0190915B018093B20080913F
:101060005D0190915E01A0915F01B09160010196D8
:10107000A11DB11D80935D0190935E01A0935F015E
:10108000B093600180915D0190915E01A0915F013C
:10109000B091600140915601509157016091580103
:1010A0007091590184179507A607B70710F1809131
:1010B0005C0181111EC081E080935C0180915D0123
:1010C00090915E01A0915F01B0916001841B950B2E
:1010D000A60BB70B80935D0190935E01A0935F0117
:1010E000B0936001E0915401F0915501099510927F
:1010F0005C01FF91EF91BF91AF919F918F917F9193
:101100006F915F914F913F912F910F900FBE0F9074
:101110001F901895789484B5826084BD84B58160F1
:1011200084BD85B5826085BD85B5816085BD8091B2
:101130006E00816080936E0010928100809181002A
:101140008260809381008091810081608093810022
:10115000809180008160809380008091B1008460E4
:101160008093B1008091B00081608093B000809145
:101170007A00846080937A0080917A008260809304
:101180007A0080917A00816080937A0080917A0061
:10119000806880937A001092C10080918100887FDE
:1011A00081608093810061E082E10E94180261E029
:1011B00081E10E94180261E089E00E94180261E06A
:1011C00080E10E94180261E08FE00E94180261E055
:1011D0008AE00E94180260E083E00E94180260E04A
:1011E00084E00E94180260E082E00E94180260E041
:1011F00085E00E94180286EB95E090930B018093A6
:101200000A0180916900837F886080936900E99A70
:101210008DE795E090930901809308018091690022
:101220008C7F826080936900E89A60E08EE00E9483
:10123000180260E083E10E94180260E086E00E94EC
:10124000180260E087E00E94180260E088E00E94D7
:10125000180260E08BE00E94180260E08DE00E94BE
:1012600018028AE090E0A0E0B0E0809356019093ED
:101270005701A0935801B093590184EB92E09093E9
:10128000550180935401809170008E7F809370008F
:101290008091B0008C7F8093B0008091B100877FF7
:1012A0008093B1008091B6008F7D8093B6008091CD
:1012B00070008D7F809370008091B1008460809376
:1012C000B1008091B1008C7F8093B10086E090E006
:1012D00090935B0180935A0110925D0110925E0120
:1012E00010925F011092600110925C0180915A018E
:1012F00090915B018093B200809170008160809337
:101300007000E0918201F091830182E08083E0919E
:101310007E01F0917F011082E0918001F0918101C6
:101320008FEC808310928A01E0918601F091870111
:1013300086E08083E0918401F09185018081806165
:101340008083E0918401F0918501808188608083B1
:10135000E0918401F0918501808180688083E09133
:101360008401F091850180818F7D8083609165018A
:1013700070916601809167019091680142E00E943E
:1013800042068AE291E00E94EF056091610170914E
:101390006201809163019091640142E00E944206E3
:1013A0008CE291E00E94EF050E948C01DFCFE2E722
:1013B000F1E01382128288EE93E0A0E0B0E0848333
:1013C0009583A683B78380E191E09183808385EC48
:1013D00090E09587848784EC90E09787868780ECFF
:1013E00090E0918B808B81EC90E0938B828B82ECF0
:1013F00090E0958B848B86EC90E0978B868B118E9A
:10140000128E138E148E08955058BB27AA270E945F
:101410001C0A0C94960B0E94880B38F00E948F0BCC
:1014200020F039F49F3F19F426F40C94850B0EF448
:10143000E095E7FB0C947F0BE92F0E94A70B58F374
:10144000BA17620773078407950720F079F4A6F5A9
:101450000C94C90B0EF4E0950B2EBA2FA02D0B01A6
:10146000B90190010C01CA01A0011124FF27591BE9
:1014700099F0593F50F4503E68F11A16F040A22FEF
:10148000232F342F4427585FF3CF46953795279560
:10149000A795F0405395C9F77EF41F16BA0B620B5F
:1014A000730B840BBAF09150A1F0FF0FBB1F661FA6
:1014B000771F881FC2F70EC0BA0F621F731F841FE9
:1014C00048F4879577956795B795F7959E3F08F00F
:1014D000B0CF9395880F08F09927EE0F97958795D1
:1014E00008950E945B0B08F481E008950E948A0A27
:1014F0000C94960B0E948F0B58F00E94880B40F0C2
:1015000029F45F3F29F00C947F0B51110C94CA0B06
:101510000C94850B0E94A70B68F39923B1F3552314
:1015200091F3951B550BBB27AA27621773078407F6
:1015300038F09F5F5F4F220F331F441FAA1FA9F38C
:1015400035D00E2E3AF0E0E832D091505040E6957A
:10155000001CCAF72BD0FE2F29D0660F771F881FDB
:10156000BB1F261737074807AB07B0E809F0BB0BCE
:10157000802DBF01FF2793585F4F3AF09E3F5105E2
:1015800078F00C947F0B0C94CA0B5F3FE4F3983E09
:10159000D4F3869577956795B795F7959F5FC9F7CB
:1015A000880F911D9695879597F90895E1E0660F4C
:1015B000771F881FBB1F621773078407BA0720F0C5
:1015C000621B730B840BBA0BEE1F88F7E09508952E
:1015D0000E94EF0A6894B1110C94CA0B08950E94FE
:1015E000AF0B88F09F5798F0B92F9927B751B0F0FB
:1015F000E1F0660F771F881F991F1AF0BA95C9F797
:1016000014C0B13091F00E94C90BB1E008950C9460
:10161000C90B672F782F8827B85F39F0B93FCCF313
:10162000869577956795B395D9F73EF49095809513
:10163000709561957F4F8F4F9F4F0895E89409C033
:1016400097FB3EF490958095709561957F4F8F4FF5
:101650009F4F9923A9F0F92F96E9BB279395F6950B
:10166000879577956795B795F111F8CFFAF4BB0F89
:1016700011F460FF1BC06F5F7F4F8F4F9F4F16C0ED
:10168000882311F096E911C0772321F09EE8872F77
:10169000762F05C0662371F096E8862F70E060E033
:1016A0002AF09A95660F771F881FDAF7880F9695AC
:1016B000879597F90895990F0008550FAA0BE0E850
:1016C000FEEF16161706E807F907C0F01216130604
:1016D000E407F50798F0621B730B840B950B39F444
:1016E0000A2661F0232B242B252B21F408950A26AA
:1016F00009F4A140A6958FEF811D811D089597F9EA
:101700009F6780E870E060E008959FEF80EC0895A7
:1017100000240A94161617061806090608950024D0
:101720000A9412161306140605060895092E03944A
:10173000000C11F4882352F0BB0F40F4BF2B11F4BE
:1017400060FF04C06F5F7F4F8F4F9F4F089557FD1D
:101750009058440F551F59F05F3F71F04795880F1F
:1017600097FB991F61F09F3F79F0879508951216B6
:1017700013061406551FF2CF4695F1DF08C0161662
:1017800017061806991FF1CF869571056105089413
:101790000895E894BB2766277727CB0197F908952A
:1017A0000E945B0B08F48FEF08950E94E80B0C94E5
:1017B000960B0E94880B38F00E948F0B20F0952327
:1017C00011F00C947F0B0C94850B11240C94CA0B14
:1017D0000E94A70B70F3959FC1F3950F50E0551F22
:1017E000629FF001729FBB27F00DB11D639FAA2776
:1017F000F00DB11DAA1F649F6627B00DA11D661FC5
:10180000829F2227B00DA11D621F739FB00DA11DE5
:10181000621F839FA00D611D221F749F3327A00D9F
:10182000611D231F849F600D211D822F762F6A2F3B
:1018300011249F5750409AF0F1F088234AF0EE0FA0
:10184000FF1FBB1F661F771F881F91505040A9F7CD
:101850009E3F510580F00C947F0B0C94CA0B5F3FA8
:10186000E4F3983ED4F3869577956795B795F79509
:10187000E7959F5FC1F7FE2B880F911D9695879581
:1018800097F908950E945B0B880B990B0895A1E2CC
:101890001A2EAA1BBB1BFD010DC0AA1FBB1FEE1FEA
:1018A000FF1FA217B307E407F50720F0A21BB30B35
:1018B000E40BF50B661F771F881F991F1A9469F7B1
:1018C00060957095809590959B01AC01BD01CF010D
:1018D0000895EE0FFF1F0590F491E02D099481E02B
:0C18E00090E0F8940C94740CF894FFCF86
:1018EC000000A0400000A040B302B30200000000C2
:1018FC0023018C00BB006A01EC00CA00DE006E61A3
:10190C006E00696E66006F7666002C000D0A000092
:107E0000112484B714BE81FFF0D085E080938100F7
:107E100082E08093C00088E18093C10086E0809377
:107E2000C20080E18093C4008EE0C9D0259A86E02C
:107E300020E33CEF91E0309385002093840096BBD3
:107E4000B09BFECF1D9AA8958150A9F7CC24DD24C4
:107E500088248394B5E0AB2EA1E19A2EF3E0BF2EE7
:107E6000A2D0813461F49FD0082FAFD0023811F036
:107E7000013811F484E001C083E08DD089C08234E0
:107E800011F484E103C0853419F485E0A6D080C0E4
:107E9000853579F488D0E82EFF2485D0082F10E0AE
:107EA000102F00270E291F29000F111F8ED06801E7
:107EB0006FC0863521F484E090D080E0DECF843638
:107EC00009F040C070D06FD0082F6DD080E0C81688
:107ED00080E7D80618F4F601B7BEE895C0E0D1E017
:107EE00062D089930C17E1F7F0E0CF16F0E7DF06D8
:107EF00018F0F601B7BEE89568D007B600FCFDCFD4
:107F0000A601A0E0B1E02C9130E011968C91119780
:107F100090E0982F8827822B932B1296FA010C0160
:107F200087BEE89511244E5F5F4FF1E0A038BF0790
:107F300051F7F601A7BEE89507B600FCFDCF97BE46
:107F4000E89526C08437B1F42ED02DD0F82E2BD052
:107F50003CD0F601EF2C8F010F5F1F4F84911BD097
:107F6000EA94F801C1F70894C11CD11CFA94CF0C13
:107F7000D11C0EC0853739F428D08EE10CD085E9AC
:107F80000AD08FE07ACF813511F488E018D01DD067
:107F900080E101D065CF982F8091C00085FFFCCF94
:107FA0009093C60008958091C00087FFFCCF809118
:107FB000C00084FD01C0A8958091C6000895E0E648
:107FC000F0E098E1908380830895EDDF803219F02E
:107FD00088E0F5DFFFCF84E1DECF1F93182FE3DFCA
:107FE0001150E9F7F2DF1F91089580E0E8DFEE27F6
:047FF000FF270994CA
:027FFE00040479
:0400000300007E007B
:00000001FF
