:100000000C9462000C94D4060C94AD060C948A00F7
:100010000C948A000C948A000C948A000C948A0038
:100020000C948A000C94FB060C948A000C948A00B1
:100030000C948A000C948A000C948A000C948A0018
:100040000C940B060C948A000C947B060C945506B9
:100050000C948A000C948A000C948A000C948A00F8
:100060000C948A000C948A000000000024002700F1
:100070002A0000000000250028002B0000000000DE
:1000800023002600290004040404040404040202DA
:100090000202020203030303030301020408102007
:1000A0004080010204081020010204081020000012
:1000B0000008000201000003040700000000000027
:1000C0000000A40811241FBECFEFD8E0DEBFCDBFD3
:1000D00011E0A0E0B1E0E8E3F6E102C005900D9286
:1000E000AE31B107D9F721E0AEE1B1E001C01D9218
:1000F000AF3FB207E1F710E0C2E6D0E004C02197BD
:10010000FE010E940F0BC136D107C9F70E946D078F
:100110000C941A0B0C940000CF92DF92EF92FF9296
:100120000F931F93CF93DF936C017A018B01C0E093
:10013000D0E0CE15DF0589F0D8016D918D01D60193
:10014000ED91FC910190F081E02DC6010995892B7C
:1001500011F47E0102C02196ECCFC701DF91CF914F
:100160001F910F91FF90EF90DF90CF900895089529
:1001700080E090E00895FC01538D448D252F30E000
:10018000842F90E0821B930B541710F0CF960895A4
:1001900001970895FC01918D828D981761F0828DF1
:1001A000DF01A80FB11D5D968C91928D9F5F9F73AB
:1001B000928F90E008958FEF9FEF0895FC01918D4D
:1001C000828D981731F0828DE80FF11D858D90E0BA
:1001D00008958FEF9FEF0895FC01918D228D892F57
:1001E00090E0805C9F4F821B91098F73992708953F
:1001F00089E591E00E94EC0021E0892B09F420E0E0
:10020000822F0895FC01848DDF01A80FB11DA35A30
:10021000BF4F2C91848D90E001968F739927848F26
:10022000A689B7892C93A089B1898C9180648C931D
:10023000938D848D981306C00288F389E02D808108
:100240008F7D80830895EF92FF920F931F93CF933A
:10025000DF93EC0181E0888F9B8D8C8D981305C016
:10026000E889F989808185FD24C0F62E0B8D10E088
:100270000F5F1F4F0F731127E02E8C8DE8120CC0FB
:100280000FB607FCFACFE889F989808185FFF5CFA1
:10029000CE010E940201F1CF8B8DFE01E80FF11D0E
:1002A000E35AFF4FF0820B8FEA89FB8980818062DD
:1002B00007C0EE89FF896083E889F98980818064BD
:1002C000808381E090E0DF91CF911F910F91FF90AB
:1002D000EF900895CF93DF93EC01888D8823C9F0C8
:1002E000EA89FB89808185FD05C0A889B9898C913F
:1002F00086FD0FC00FB607FCF5CF808185FFF2CFDA
:10030000A889B9898C9185FFEDCFCE010E940201A9
:10031000E7CFDF91CF91089580E090E0892B29F01D
:100320000E94F80081110C9400000895833081F040
:1003300028F4813099F08230A1F008958730A9F037
:100340008830B9F08430D1F4809180008F7D03C073
:10035000809180008F7780938000089584B58F7797
:1003600002C084B58F7D84BD08958091B0008F77E1
:1003700003C08091B0008F7D8093B0000895CF932B
:10038000DF93282F30E0F901E255FF4F8491F90106
:10039000E656FF4FD491F901EA57FF4FC491CC23A1
:1003A00091F081110E949601EC2FF0E0EE0FFF1FFB
:1003B000E458FF4FA591B491EC91ED2381E090E0DA
:1003C00021F480E002C080E090E0DF91CF910895B9
:1003D0001F93CF93DF93282F30E0F901E255FF4FB1
:1003E0008491F901E656FF4FD491F901EA57FF4F86
:1003F000C491CC23C9F0162F81110E949601EC2FD5
:10040000F0E0EE0FFF1FEE58FF4FA591B4918FB7AC
:10041000F894111105C09C91ED2FE095E92302C0DD
:10042000EC91ED2BEC938FBFDF91CF911F9108954D
:10043000CF93DF9390E0FC01E656FF4F2491FC013F
:10044000EA57FF4F8491882361F190E0880F991F4C
:10045000FC01E859FF4FC591D491FC01EE58FF4FC4
:10046000A591B491611109C09FB7F8948881209536
:1004700082238883EC912E230BC0623061F49FB7F6
:10048000F8943881822F809583238883EC912E2BDA
:100490002C939FBF06C08FB7F894E8812E2B28833A
:1004A0008FBFDF91CF9108951F93CF93DF93182FC4
:1004B000EB0161E00E941802209711F460E004C093
:1004C000CF3FD10539F461E0812FDF91CF911F91AA
:1004D0000C94E801E12FF0E0E255FF4FE491E330A6
:1004E000F9F048F4E130B9F0E230A1F584B580626A
:1004F00084BDC8BD34C0E730E9F0E83019F1E4301C
:1005000049F580918000806280938000D0938B00B9
:10051000C0938A0024C084B5806884BDC7BD1FC055
:1005200080918000806880938000D0938900C09380
:10053000880015C08091B00080688093B000C0939F
:10054000B3000DC08091B00080628093B000C09372
:10055000B40005C0C038D1050CF0B5CFAFCFDF91E6
:10056000CF911F91089508952F923F924F925F92DD
:100570006F927F928F929F92AF92BF92CF92DF92B3
:10058000EF92FF920F931F93CF93DF93CDB7DEB718
:1005900028970FB6F894DEBF0FBECDBF8EE00E9445
:1005A000BF0121E030E03E832D83892B11F01E82B4
:1005B0001D8283E10E94BF0122242394892B09F02C
:1005C000212CE22CF12C86E00E94BF0133243394CD
:1005D000892B09F0312C832C912C88E00E94BF01DB
:1005E00044244394892B09F0412C442D50E05A8334
:1005F00049838BE00E94BF0155245394892B09F055
:10060000512C652C712C8DE00E94BF01CC24C39429
:10061000D12C892B11F0C12CD12C8CE00E94BF0170
:10062000AA24A394B12C892B11F0A12CB12C87E022
:100630000E94BF0101E010E0892B11F000E010E002
:10064000222029F1332019F1442009F15520F9F035
:1006500081E090E090934B0180934A0128960FB679
:10066000F894DEBF0FBECDBFDF91CF911F910F91E8
:10067000FF90EF90DF90CF90BF90AF909F908F90C2
:100680007F906F905F904F903F902F900895609172
:1006900046017091470180914801909149010E9463
:1006A000ED099B01AC010E94D20826E53EE049E439
:1006B00050E40E94A20A9B01AC010E94D20820E0F3
:1006C00030E048EC52E40E94A20A20E030E043E42B
:1006D00054E40E9443096093420170934301809364
:1006E00044019093450110924601109247011092E7
:1006F00048011092490160913E0170913F01809143
:100700004001909141010E94ED099B01AC010E94C2
:10071000D20826E53EE049E450E40E94A20A9B018B
:10072000AC010E94D20820E030E048EC52E40E9484
:10073000A20A20E030E043E454E40E9443096093BD
:100740003A0170933B0180933C0190933D011092DC
:100750003E0110923F0110924001109241018D81A3
:100760009E81A80EB91E8EE18A9DB0018B9D700DF1
:10077000112443E0EE0CFF1C4A95E1F7E60EF71E4C
:1007800086E0889DB001899D700D11246E0D7F1D3E
:100790002AEF49815A812403C001259F900D11241D
:1007A000680F791FC30153E0880F991F5A95E1F72D
:1007B000681B790B22EEA60124037001259FF00C23
:1007C00011246E0D7F1D2003C001219F900D112467
:1007D000680F791F072E000C880B990B0E94ED09FA
:1007E00020E030E040E05FE30E94A20A6B017C0160
:1007F0009B01AC01609100017091010180910201A7
:10080000909103010E94D1086D837E838F83988726
:100810008090420190904301A0904401B090450126
:10082000209104013091050140910601509107018A
:10083000C701B6010E94D208A50194010E94D10807
:100840004B015C0140902A0150902B0160902C01DB
:1008500070902D0120E030E042E052E40E94A20AB4
:100860006B017C0120E030E040E252ECC301B201B8
:100870000E94A20A9B01AC01C701B6010E94D208E6
:100880006B017C0120E030E040E251E46091260100
:100890007091270180912801909129010E94A20A5C
:1008A0009B01AC01C701B6010E94D2082091220130
:1008B0003091230140912401509125010E94D208DA
:1008C0006B017C0120E030E04FE753E40E949D0A79
:1008D00018168CF020E030E04FE753ECC701B6016A
:1008E0000E943E0987FF0DC0C12CD12C3FE7E32EAB
:1008F00033ECF32E06C0C12CD12C2FE7E22E23E4DB
:10090000F22EC0922201D0922301E0922401F092B3
:100910002501409226015092270160922801709291
:10092000290180922A0190922B01A0922C01B09271
:100930002D01C701B6010E94B50969837A838B83B3
:100940009C8329803A8020913A0130913B0140916B
:100950003C0150913D016D817E818F8198850E947F
:10096000D1082B013C018090360190903701A09076
:100970003801B090390120E030E042E851E40E94B3
:10098000A20A6B017C0120E030E040EA51ECC50195
:10099000B4010E94A20A9B01AC01C701B6010E94EA
:1009A000D2086B017C0120E030E040EA50E4609125
:1009B00032017091330180913401909135010E9490
:1009C000A20A9B01AC01C701B6010E94D208209186
:1009D0002E0130912F0140913001509131010E9440
:1009E000D2086B017C0120E030E04FE753E40E9425
:1009F0009D0A18168CF020E030E04FE753ECC70159
:100A0000B6010E943E0987FF0DC0C12CD12C9FE783
:100A1000E92E93ECF92E06C0C12CD12C8FE7E82EDD
:100A200083E4F82EC0922E01D0922F01E092300183
:100A3000F09231018092320190923301A092340100
:100A4000B0923501409236015092370160923801E0
:100A500070923901C701B6010E94B5096B017C0192
:100A60008B0180E090E0A0EAB0E4809304019093D1
:100A70000501A0930601B0930701809300019093B4
:100A80000101A0930201B0930301121413045CF45A
:100A900060E080E10E94E80161E08FE00E94E801EF
:100AA00069817A810DC061E080E10E94E80160E027
:100AB0008FE00E94E80169817A81719561957109E1
:100AC0008AE00E9454021016110654F461E082E19B
:100AD0000E94E80160E081E10E94E801B6010CC0DB
:100AE00060E082E10E94E80161E081E10E94E801AA
:100AF000662777276C197D0989E028960FB6F89448
:100B0000DEBF0FBECDBFDF91CF911F910F91FF9040
:100B1000EF90DF90CF90BF90AF909F908F907F909D
:100B20006F905F904F903F902F900C945402809163
:100B30002001909121010196909321018093200141
:100B400082E00E94BF01892B31F485E00E94BF0141
:100B5000892B31F411C085E00E94BF01892B61F41B
:100B600080913E0190913F01A0914001B0914101DF
:100B70000196A11DB11D0BC080913E0190913F01D6
:100B8000A0914001B09141010197A109B109809361
:100B90003E0190933F01A0934001B093410108951D
:100BA00080911E0190911F01019690931F018093E7
:100BB0001E0183E00E94BF01892B31F484E00E9472
:100BC000BF01892B31F411C085E00E94BF01892B40
:100BD00061F48091460190914701A0914801B09144
:100BE00049010196A11DB11D0BC080914601909154
:100BF0004701A0914801B09149010197A109B109AC
:100C00008093460190934701A0934801B093490116
:100C100008950E94150B1F920F920FB60F92112488
:100C20002F933F938F939F93AF93BF938091FB013B
:100C30009091FC01A091FD01B091FE013091FA016B
:100C400023E0230F2D3720F40196A11DB11D05C00F
:100C500026E8230F0296A11DB11D2093FA0180936F
:100C6000FB019093FC01A093FD01B093FE018091E4
:100C7000F6019091F701A091F801B091F901019668
:100C8000A11DB11D8093F6019093F701A093F80187
:100C9000B093F901BF91AF919F918F913F912F91A7
:100CA0000F900FBE0F901F9018951F920F920FB6C6
:100CB0000F9211242F933F934F935F936F937F93E2
:100CC0008F939F93AF93BF93EF93FF9389E591E049
:100CD0000E940201FF91EF91BF91AF919F918F917F
:100CE0007F916F915F914F913F912F910F900FBE28
:100CF0000F901F9018951F920F920FB60F9211240C
:100D00002F938F939F93EF93FF93E0916901F0915D
:100D10006A018081E0916F01F091700182FD12C043
:100D20009081809172018F5F8F7320917301821780
:100D300051F0E0917201F0E0E75AFE4F958F8093F9
:100D4000720101C08081FF91EF919F918F912F914E
:100D50000F900FBE0F901F9018951F920F920FB615
:100D60000F9211242F933F934F935F936F937F9331
:100D70008F939F93AF93BF93EF93FF93E0910A01FB
:100D8000F0910B010995FF91EF91BF91AF919F9168
:100D90008F917F916F915F914F913F912F910F9024
:100DA0000FBE0F901F9018951F920F920FB60F92C3
:100DB00011242F933F934F935F936F937F938F9360
:100DC0009F93AF93BF93EF93FF93E0910801F0914E
:100DD00009010995FF91EF91BF91AF919F918F917B
:100DE0007F916F915F914F913F912F910F900FBE27
:100DF0000F901F9018951F920F920FB60F9211240B
:100E00002F933F934F935F936F937F938F939F9312
:100E1000AF93BF93EF93FF93809152019091530151
:100E20008093B2008091550190915601A091570195
:100E3000B09158010196A11DB11D80935501909369
:100E40005601A0935701B09358018091550190919C
:100E50005601A0915701B091580140914E01509117
:100E60004F01609150017091510184179507A607B9
:100E7000B70710F18091540181111EC081E0809369
:100E800054018091550190915601A0915701B09164
:100E90005801841B950BA60BB70B809355019093BB
:100EA0005601A0935701B0935801E0914C01F09185
:100EB0004D01099510925401FF91EF91BF91AF91AF
:100EC0009F918F917F916F915F914F913F912F9162
:100ED0000F900FBE0F901F901895789484B5826084
:100EE00084BD84B5816084BD85B5826085BD85B5CE
:100EF000816085BD80916E00816080936E0010924C
:100F000081008091810082608093810080918100C6
:100F10008160809381008091800081608093800057
:100F20008091B10084608093B1008091B0008160B5
:100F30008093B00080917A00846080937A008091E1
:100F40007A00826080937A0080917A008160809339
:100F50007A0080917A00806880937A001092C100B4
:100F600080918100887F81608093810061E082E1CF
:100F70000E94180261E081E10E94180261E089E0AC
:100F80000E94180261E080E10E94180261E08FE097
:100F90000E94180261E08AE00E94180260E083E08B
:100FA0000E94180260E084E00E94180260E082E083
:100FB0000E94180260E085E00E94180280ED95E032
:100FC00090930B0180930A0180916900837F886070
:100FD00080936900E99A87E995E0909309018093ED
:100FE0000801809169008C7F826080936900E89A93
:100FF00060E08EE00E94180260E083E10E94180227
:1010000060E086E00E94180260E087E00E9418021B
:1010100060E088E00E94180260E08BE00E94180205
:1010200060E08DE00E94180260E08CE00E941802EF
:1010300060E087E00E9418028AE090E0A0E0B0E063
:1010400080934E0190934F01A0935001B0935101B2
:1010500084EB92E090934D0180934C01809170005D
:101060008E7F809370008091B0008C7F8093B00061
:101070008091B100877F8093B1008091B6008F7D11
:101080008093B600809170008D7F80937000809176
:10109000B10084608093B1008091B1008C7F809317
:1010A000B10086E090E0909353018093520110923A
:1010B000550110925601109257011092580110924A
:1010C000540180915201909153018093B20080911C
:1010D0007000816080937000E0916901F0916A0175
:1010E00082E08083E0916501F09166011082E091D9
:1010F0006701F09168018FEC808310927101E0919B
:101100006D01F0916E0186E08083E0916B01F091BA
:101110006C01808180618083E0916B01F0916C01B2
:10112000808188608083E0916B01F0916C01808107
:1011300080688083E0916B01F0916C0180818F7DEC
:1011400080830E948C01FDCFE9E5F1E013821282D9
:1011500088EE93E0A0E0B0E084839583A683B78314
:1011600080E191E09183808385EC90E0958784878E
:1011700084EC90E09787868780EC90E0918B808B61
:1011800081EC90E0938B828B82EC90E0958B848B4A
:1011900086EC90E0978B868B118E128E138E148EB8
:1011A00008955058BB27AA270E94E9080C94630AA7
:1011B0000E94550A38F00E945C0A20F039F49F3FE3
:1011C00019F426F40C94520A0EF4E095E7FB0C9403
:1011D0004C0AE92F0E94740A58F3BA176207730782
:1011E0008407950720F079F4A6F50C94960A0EF47E
:1011F000E0950B2EBA2FA02D0B01B90190010C0127
:10120000CA01A0011124FF27591B99F0593F50F43E
:10121000503E68F11A16F040A22F232F342F442796
:10122000585FF3CF469537952795A795F04053958E
:10123000C9F77EF41F16BA0B620B730B840BBAF05E
:101240009150A1F0FF0FBB1F661F771F881FC2F7C9
:101250000EC0BA0F621F731F841F48F487957795DD
:101260006795B795F7959E3F08F0B0CF9395880F97
:1012700008F09927EE0F9795879508950E94280A00
:1012800008F481E008950E9457090C94630A0E94B3
:101290005C0A58F00E94550A40F029F45F3F29F09B
:1012A0000C944C0A51110C94970A0C94520A0E9407
:1012B000740A68F39923B1F3552391F3951B550BE9
:1012C000BB27AA2762177307840738F09F5F5F4F19
:1012D000220F331F441FAA1FA9F335D00E2E3AF058
:1012E000E0E832D091505040E695001CCAF72BD070
:1012F000FE2F29D0660F771F881FBB1F26173707C1
:101300004807AB07B0E809F0BB0B802DBF01FF27F2
:1013100093585F4F3AF09E3F510578F00C944C0A79
:101320000C94970A5F3FE4F3983ED4F38695779543
:101330006795B795F7959F5FC9F7880F911D9695AB
:10134000879597F90895E1E0660F771F881FBB1F07
:10135000621773078407BA0720F0621B730B840BB4
:10136000BA0BEE1F88F7E09508950E94BC096894B7
:10137000B1110C94970A08950E947C0A88F09F5737
:1013800098F0B92F9927B751B0F0E1F0660F771FA9
:10139000881F991F1AF0BA95C9F714C0B13091F09F
:1013A0000E94960AB1E008950C94960A672F782F50
:1013B0008827B85F39F0B93FCCF386957795679564
:1013C000B395D9F73EF490958095709561957F4FD0
:1013D0008F4F9F4F0895E89409C097FB3EF4909576
:1013E0008095709561957F4F8F4F9F4F9923A9F0FE
:1013F000F92F96E9BB279395F6958795779567958D
:10140000B795F111F8CFFAF4BB0F11F460FF1BC0D0
:101410006F5F7F4F8F4F9F4F16C0882311F096E963
:1014200011C0772321F09EE8872F762F05C0662311
:1014300071F096E8862F70E060E02AF09A95660FCA
:10144000771F881FDAF7880F9695879597F9089583
:10145000990F0008550FAA0BE0E8FEEF16161706C5
:10146000E807F907C0F012161306E407F50798F02D
:10147000621B730B840B950B39F40A2661F0232B46
:10148000242B252B21F408950A2609F4A140A695C2
:101490008FEF811D811D089597F99F6780E870E0A7
:1014A00060E008959FEF80EC089500240A941616DA
:1014B000170618060906089500240A941216130642
:1014C000140605060895092E0394000C11F48823D0
:1014D00052F0BB0F40F4BF2B11F460FF04C06F5FEC
:1014E0007F4F8F4F9F4F089557FD9058440F551FC2
:1014F00059F05F3F71F04795880F97FB991F61F096
:101500009F3F79F087950895121613061406551F0C
:10151000F2CF4695F1DF08C0161617061806991F78
:10152000F1CF86957105610508940895E894BB276D
:1015300066277727CB0197F908950E94280A08F4B7
:101540008FEF08950E94B50A0C94630A0E94550A11
:1015500038F00E945C0A20F0952311F00C944C0A9C
:101560000C94520A11240C94970A0E94740A70F386
:10157000959FC1F3950F50E0551F629FF001729F38
:10158000BB27F00DB11D639FAA27F00DB11DAA1F47
:10159000649F6627B00DA11D661F829F2227B00D94
:1015A000A11D621F739FB00DA11D621F839FA00D1F
:1015B000611D221F749F3327A00D611D231F849F6F
:1015C000600D211D822F762F6A2F11249F575040C6
:1015D0009AF0F1F088234AF0EE0FFF1FBB1F661F41
:1015E000771F881F91505040A9F79E3F510580F00A
:1015F0000C944C0A0C94970A5F3FE4F3983ED4F3A2
:10160000869577956795B795F795E7959F5FC1F7AD
:10161000FE2B880F911D9695879597F90895EE0FEB
:10162000FF1F0590F491E02D099481E090E0F8947B
:081630000C941A0BF894FFCF93
:101638000000A0400000A040B302B3020000000078
:0E16480023018C00BB006A01EC00CA00DE002A
:00000001FF
