:100000000C9462000C94AF070C9488070C948A003F
:100010000C948A000C948A000C948A000C948A0038
:100020000C948A000C94D6070C948A000C948A00D5
:100030000C948A000C948A000C948A000C948A0018
:100040000C94E6060C948A000C9456070C94300726
:100050000C948A000C948A000C948A000C948A00F8
:100060000C948A000C948A000000000024002700F1
:100070002A0000000000250028002B0000000000DE
:1000800023002600290004040404040404040202DA
:100090000202020203030303030301020408102007
:1000A0004080010204081020010204081020000012
:1000B0000008000201000003040700000000000027
:1000C0000000150A11241FBECFEFD8E0DEBFCDBF60
:1000D00011E0A0E0B1E0E8E6F9E102C005900D9280
:1000E000A433B107D9F722E0A4E3B1E001C01D9227
:1000F000A133B207E1F710E0C2E6D0E004C02197D7
:10010000FE010E94A70CC136D107C9F70E9448081A
:100110000C94B20C0C940000CF92DF92EF92FF92FD
:100120000F931F93CF93DF936C017A018B01C0E093
:10013000D0E0CE15DF0589F0D8016D918D01D60193
:10014000ED91FC910190F081E02DC6010995892B7C
:1001500011F47E0102C02196ECCFC701DF91CF914F
:100160001F910F91FF90EF90DF90CF900895089529
:1001700080E090E00895FC01538D448D252F30E000
:10018000842F90E0821B930B541710F0CF960895A4
:1001900001970895FC01918D828D981761F0828DF1
:1001A000DF01A80FB11D5D968C91928D9F5F9F73AB
:1001B000928F90E008958FEF9FEF0895FC01918D4D
:1001C000828D981731F0828DE80FF11D858D90E0BA
:1001D00008958FEF9FEF0895FC01918D228D892F57
:1001E00090E0805C9F4F821B91098F73992708953F
:1001F00084E991E00E94EC0021E0892B09F420E0E1
:10020000822F0895FC01848DDF01A80FB11DA35A30
:10021000BF4F2C91848D90E001968F739927848F26
:10022000A689B7892C93A089B1898C9180648C931D
:10023000938D848D981306C00288F389E02D808108
:100240008F7D80830895EF92FF920F931F93CF933A
:10025000DF93EC0181E0888F9B8D8C8D981305C016
:10026000E889F989808185FD24C0F62E0B8D10E088
:100270000F5F1F4F0F731127E02E8C8DE8120CC0FB
:100280000FB607FCFACFE889F989808185FFF5CFA1
:10029000CE010E940201F1CF8B8DFE01E80FF11D0E
:1002A000E35AFF4FF0820B8FEA89FB8980818062DD
:1002B00007C0EE89FF896083E889F98980818064BD
:1002C000808381E090E0DF91CF911F910F91FF90AB
:1002D000EF900895CF93DF93EC01888D8823C9F0C8
:1002E000EA89FB89808185FD05C0A889B9898C913F
:1002F00086FD0FC00FB607FCF5CF808185FFF2CFDA
:10030000A889B9898C9185FFEDCFCE010E940201A9
:10031000E7CFDF91CF91089580E090E0892B29F01D
:100320000E94F80081110C9400000895833081F040
:1003300028F4813099F08230A1F008958730A9F037
:100340008830B9F08430D1F4809180008F7D03C073
:10035000809180008F7780938000089584B58F7797
:1003600002C084B58F7D84BD08958091B0008F77E1
:1003700003C08091B0008F7D8093B0000895CF932B
:10038000DF93282F30E0F901E255FF4F8491F90106
:10039000E656FF4FD491F901EA57FF4FC491CC23A1
:1003A00091F081110E949601EC2FF0E0EE0FFF1FFB
:1003B000E458FF4FA591B491EC91ED2381E090E0DA
:1003C00021F480E002C080E090E0DF91CF910895B9
:1003D0001F93CF93DF93282F30E0F901E255FF4FB1
:1003E0008491F901E656FF4FD491F901EA57FF4F86
:1003F000C491CC23C9F0162F81110E949601EC2FD5
:10040000F0E0EE0FFF1FEE58FF4FA591B4918FB7AC
:10041000F894111105C09C91ED2FE095E92302C0DD
:10042000EC91ED2BEC938FBFDF91CF911F9108954D
:10043000CF93DF9390E0FC01E656FF4F2491FC013F
:10044000EA57FF4F8491882361F190E0880F991F4C
:10045000FC01E859FF4FC591D491FC01EE58FF4FC4
:10046000A591B491611109C09FB7F8948881209536
:1004700082238883EC912E230BC0623061F49FB7F6
:10048000F8943881822F809583238883EC912E2BDA
:100490002C939FBF06C08FB7F894E8812E2B28833A
:1004A0008FBFDF91CF9108951F93CF93DF93182FC4
:1004B000EB0161E00E941802209711F460E004C093
:1004C000CF3FD10539F461E0812FDF91CF911F91AA
:1004D0000C94E801E12FF0E0E255FF4FE491E330A6
:1004E000F9F048F4E130B9F0E230A1F584B580626A
:1004F00084BDC8BD34C0E730E9F0E83019F1E4301C
:1005000049F580918000806280938000D0938B00B9
:10051000C0938A0024C084B5806884BDC7BD1FC055
:1005200080918000806880938000D0938900C09380
:10053000880015C08091B00080688093B000C0939F
:10054000B3000DC08091B00080628093B000C09372
:10055000B40005C0C038D1050CF0B5CFAFCFDF91E6
:10056000CF911F91089508954F925F926F927F925D
:100570008F929F92AF92BF92CF92DF92EF92FF92B3
:100580000F931F93CF93DF93CDB7DEB728970FB6A6
:10059000F894DEBF0FBECDBF609160017091610124
:1005A00080916201909163010E945E0B9B01AC01FE
:1005B0000E94430A26E53EE049E450E40E94130C01
:1005C0009B01AC010E94430A20E030E048EC52E479
:1005D0000E94130C20E030E043E454E40E94B40A8B
:1005E00060937F01709380018093810190938201D9
:1005F00010926001109261011092620110926301E9
:1006000060915C0170915D0180915E0190915F014C
:100610000E945E0B9B01AC010E94430A26E53EE06E
:1006200049E450E40E94130C9B01AC010E94430A70
:1006300020E030E048EC52E40E94130C20E030E06F
:1006400043E454E40E94B40A6093830170938401EC
:10065000809385019093860110925C0110925D0158
:1006600010925E0110925F01209187013091880104
:100670004091890150918A0160E070E080E890E447
:100680000E94420A4B015C01C0904001D0904101A0
:10069000E0904201F0904301A70196010E94420AB6
:1006A00020E030E040EE50E40E94130C2B013C01AE
:1006B000A7019601C701B6010E94430A9B01AC0144
:1006C000C501B4010E94420A20913C0130913D01D4
:1006D00040913E0150913F010E94430A20E030E0EA
:1006E00040E450E40E94130C9B01AC01C301B20131
:1006F0000E94430AC0923C01D0923D01E0923E012B
:10070000F0923F018092400190924101A0924201FB
:10071000B0924301209138013091390140913A0162
:1007200050913B010E94430A6B017C0160933801A8
:100730007093390180933A0190933B019B01AC0186
:10074000609100017091010180910201909103017B
:100750000E94420A6D837E838F83988780907F01F9
:1007600090908001A0908101B090820120910401BD
:10077000309105014091060150910701C701B60172
:100780000E94430AA50194010E94420A4B015C01A8
:1007900040904C0150904D0160904E0170904F017F
:1007A00020E030E040E252E40E94130C6B017C0137
:1007B00020E030E048E452ECC301B2010E94130C87
:1007C0009B01AC01C701B6010E94430A6B017C0189
:1007D00020E030E048E451E4609148017091490123
:1007E00080914A0190914B010E94130C9B01AC0136
:1007F000C701B6010E94430A20914401309145018E
:1008000040914601509147010E94430A6B017C01CF
:1008100020E030E04FE753E40E940E0C18168CF0F5
:1008200020E030E04FE753ECC701B6010E94AF0A69
:1008300087FF0DC0C12CD12C3FE7E32E33ECF32E04
:1008400006C0C12CD12C2FE7E22E23E4F22EC09259
:100850004401D0924501E0924601F0924701409256
:1008600048015092490160924A0170924B01809276
:100870004C0190924D01A0924E01B0924F01C701E0
:10088000B6010E94260B69837A838B839C8309813E
:100890001A8120918301309184014091850150910A
:1008A00086016D817E818F8198850E94420A2B018D
:1008B0003C018090580190905901A0905A01B0904D
:1008C0005B0123E333E343EB51E40E94130C6B0120
:1008D0007C0120E030E040EE51ECC501B4010E9403
:1008E000130C9B01AC01C701B6010E94430A6B01C6
:1008F0007C0120E030E040EE50E4609154017091C2
:10090000550180915601909157010E94130C9B0153
:10091000AC01C701B6010E94430A209150013091F9
:10092000510140915201509153010E94430A6B01C1
:100930007C0120E030E04FE753E40E940E0C1816D3
:100940008CF020E030E04FE753ECC701B6010E9485
:10095000AF0A87FF0DC0C12CD12C9FE7E92E93EC85
:10096000F92E06C0C12CD12C8FE7E82E83E4F82E97
:10097000C0925001D0925101E0925201F092530185
:100980008092540190925501A0925601B092570165
:10099000409258015092590160925A0170925B0145
:1009A000C701B6010E94260B2B013C017B0180E0B0
:1009B00090E0A0EFB1E48093040190930501A0932F
:1009C0000601B09307018093000190930101A09369
:1009D0000201B0930301101611065CF460E080E19F
:1009E0000E94E80161E08FE00E94E80169817A815C
:1009F0000DC061E080E10E94E80160E08FE00E94AC
:100A0000E80169817A817195619571098AE00E9496
:100A100054021E141F0454F461E082E10E94E801B4
:100A200060E081E10E94E801B2010CC060E082E177
:100A30000E94E80161E081E10E94E80166277727D2
:100A40006419750989E028960FB6F894DEBF0FBEC9
:100A5000CDBFDF91CF911F910F91FF90EF90DF906D
:100A6000CF90BF90AF909F908F907F906F905F904E
:100A70004F900C9454028091360190913701019669
:100A8000909337018093360182E00E94BF01892B49
:100A900031F485E00E94BF01892B31F411C085E05B
:100AA0000E94BF01892B61F480915C0190915D01EE
:100AB000A0915E01B0915F010196A11DB11D0BC017
:100AC00080915C0190915D01A0915E01B0915F0108
:100AD0000197A109B10980935C0190935D01A093F6
:100AE0005E01B0935F0108958091340190913501CA
:100AF0000196909335018093340183E00E94BF01F9
:100B0000892B31F484E00E94BF01892B31F411C09C
:100B100085E00E94BF01892B61F480916001909172
:100B20006101A0916201B09163010196A11DB11D07
:100B30000BC08091600190916101A0916201B09120
:100B400063010197A109B10980936001909361014C
:100B5000A0936201B09363010895009769F0FC01CE
:100B600001900020E9F73197AF01481B590BBC01F8
:100B700084E991E00C948C0080E090E008958F92DD
:100B80009F92AF92BF920F931F93CF93DF93CDB7F6
:100B9000DEB7A1970FB6F894DEBF0FBECDBF19A286
:100BA000423008F44AE08E010F5D1F4F842E912CD5
:100BB000A12CB12CA50194010E94850CE62FB9014E
:100BC000CA0101501109EA3014F4E05D01C0E95C8A
:100BD000D801EC93232B242B252B61F7C8010E940D
:100BE000AD05A1960FB6F894DEBF0FBECDBFDF9165
:100BF000CF911F910F91BF90AF909F908F900895CC
:100C00004F925F926F927F928F929F92AF92BF921C
:100C1000CF92DF92EF92FF926B017C01B42E9B0189
:100C2000AC010E94800C882319F082E291E027C079
:100C300026013701E89477F82FEF3FEF4FE75FE7A2
:100C4000C301B2010E94800C81110DC02FEF3FEF54
:100C50004FE75FE7C301B2010E94AF0A18161CF408
:100C600086E291E00CC02FEF3FEF4FE75FE4C70152
:100C7000B6010E940E0C181684F48AE291E0FF90EF
:100C8000EF90DF90CF90BF90AF909F908F907F902C
:100C90006F905F904F900C94AD052FEF3FEF4FE7B3
:100CA0005FECC701B6010E94AF0A87FDE6CF20E0E6
:100CB00030E0A901C701B6010E94AF0A87FF11C049
:100CC000E0919401F09195010190F081E02D6DE2A9
:100CD00084E991E009954C01F7FAF094F7F8F09463
:100CE00002C0812C912CA12C60E070E080E09FE399
:100CF000AB1441F020E030E040E251E40E94B40A3D
:100D0000A394F6CF9B01AC01C701B6010E94430A30
:100D10002B013C010E942D0B6B017C010E945C0B9E
:100D20009B01AC01C301B2010E94420A2B013C01AC
:100D30004AE0C701B6010E94BF057C01E80CF91C1E
:100D4000BB2069F0E0919401F09195010190F08150
:100D5000E02D6EE284E991E00995E80EF91EDB2CA6
:100D6000DD2021F120E030E040E251E4C301B20196
:100D70000E94130C2B013C010E942D0B4B01A12C56
:100D8000B12C4AE0C501B4010E94BF05E80EF91E6E
:100D9000C501B4010E945C0B9B01AC01C301B2010F
:100DA0000E94420A2B013C01DA94DACFC701FF907E
:100DB000EF90DF90CF90BF90AF909F908F907F90FB
:100DC0006F905F904F9008950E94AD0C1F920F920C
:100DD0000FB60F9211242F933F938F939F93AF934E
:100DE000BF938091900190919101A0919201B09157
:100DF000930130918F0123E0230F2D3720F40196CA
:100E0000A11DB11D05C026E8230F0296A11DB11D2D
:100E100020938F018093900190939101A093920170
:100E2000B093930180918B0190918C01A0918D01E1
:100E3000B0918E010196A11DB11D80938B019093FD
:100E40008C01A0938D01B0938E01BF91AF919F91C2
:100E50008F913F912F910F900FBE0F901F9018957B
:100E60001F920F920FB60F9211242F933F934F931F
:100E70005F936F937F938F939F93AF93BF93EF9302
:100E8000FF9384E991E00E940201FF91EF91BF91ED
:100E9000AF919F918F917F916F915F914F913F9112
:100EA0002F910F900FBE0F901F9018951F920F92C9
:100EB0000FB60F9211242F938F939F93EF93FF936D
:100EC000E091A401F091A5018081E091AA01F09147
:100ED000AB0182FD12C090818091AD018F5F8F7355
:100EE0002091AE01821751F0E091AD01F0E0EC5697
:100EF000FE4F958F8093AD0101C08081FF91EF91EE
:100F00009F918F912F910F900FBE0F901F9018956A
:100F10001F920F920FB60F9211242F933F934F936E
:100F20005F936F937F938F939F93AF93BF93EF9351
:100F3000FF93E0910A01F0910B010995FF91EF9168
:100F4000BF91AF919F918F917F916F915F914F91E1
:100F50003F912F910F900FBE0F901F9018951F92E9
:100F60000F920FB60F9211242F933F934F935F93DD
:100F70006F937F938F939F93AF93BF93EF93FF9361
:100F8000E0910801F09109010995FF91EF91BF915E
:100F9000AF919F918F917F916F915F914F913F9111
:100FA0002F910F900FBE0F901F9018951F920F92C8
:100FB0000FB60F9211242F933F934F935F936F932C
:100FC0007F938F939F93AF93BF93EF93FF93809102
:100FD0006A0190916B018093B20080916D019091B4
:100FE0006E01A0916F01B09170010196A11DB11D1C
:100FF00080936D0190936E01A0936F01B093700187
:1010000080916D0190916E01A0916F01B09170017E
:10101000409166015091670160916801709169018A
:1010200084179507A607B70710F180916C0181110D
:101030001EC081E080936C0180916D0190916E01E2
:10104000A0916F01B0917001841B950BA60BB70B9B
:1010500080936D0190936E01A0936F01B093700126
:10106000E0916401F0916501099510926C01FF9186
:10107000EF91BF91AF919F918F917F916F915F9110
:101080004F913F912F910F900FBE0F901F90189589
:10109000789484B5826084BD84B5816084BD85B553
:1010A000826085BD85B5816085BD80916E0081605F
:1010B00080936E0010928100809181008260809305
:1010C0008100809181008160809381008091800007
:1010D0008160809380008091B10084608093B10032
:1010E0008091B00081608093B00080917A0084602C
:1010F00080937A0080917A00826080937A00809158
:101100007A00816080937A0080917A008068809371
:101110007A001092C10080918100887F8160809365
:10112000810061E082E10E94180261E081E10E9499
:10113000180261E089E00E94180261E080E10E94EB
:10114000180261E08FE00E94180261E08AE00E94CC
:10115000180260E083E00E94180260E084E00E94D0
:10116000180260E082E00E94180260E085E00E94C0
:10117000180284E795E090930B0180930A01809117
:101180006900837F886080936900E99A8BE395E02A
:101190009093090180930801809169008C7F82609F
:1011A00080936900E89A60E08EE00E94180260E097
:1011B00083E10E94180260E086E00E94180260E06D
:1011C00087E00E94180260E088E00E94180260E058
:1011D0008BE00E94180260E08DE00E9418028AE015
:1011E00090E0A0E0B0E08093660190936701A09347
:1011F0006801B093690184EB92E09093650180935C
:101200006401809170008E7F809370008091B000A7
:101210008C7F8093B0008091B100877F8093B10074
:101220008091B6008F7D8093B600809170008D7F95
:10123000809370008091B10084608093B1008091B0
:10124000B1008C7F8093B10086E090E090936B01B9
:1012500080936A0110926D0110926E0110926F01DD
:101260001092700110926C0180916A0190916B0153
:101270008093B20080917000816080937000E09153
:10128000A401F091A50182E08083E091A001F0919A
:10129000A1011082E091A201F091A3018FEC808363
:1012A0001092AC01E091A801F091A90186E0808341
:1012B000E091A601F091A701808180618083E09197
:1012C000A601F091A701808188608083E091A6014A
:1012D000F091A701808180688083E091A601F09160
:1012E000A70180818F7D80838EE00E94BF0121E075
:1012F00030E0892B11F020E030E030937201209330
:10130000710183E10E94BF01909374018093730186
:1013100086E00E94BF01909376018093750187E07B
:101320000E94BF01909378018093770188E00E942A
:10133000BF0190937A01809379018BE00E94BF01F5
:1013400090937C0180937B018DE00E94BF0121E09E
:1013500030E0892B11F020E030E030937E012093C3
:101360007D01E1E7F1E081E090E0C0E0D0E060E005
:1013700070E021913191232B19F4680F791F219688
:10138000019688309105A9F76115710549F46091BE
:101390000C0170910D0180910E0190910F0114C00C
:1013A000072E000C880B990B0E945E0B6B017C01D1
:1013B000BE01DD0F880B990B0E945E0B9B01AC01F7
:1013C000C701B6010E94B40A60930C0170930D012D
:1013D00080930E0190930F016093870170938801B1
:1013E0008093890190938A016091830170918401B7
:1013F000809185019091860142E00E9400068EE274
:1014000091E00E94AD0560917F0170918001809113
:1014100081019091820142E00E94000680E391E008
:101420000E94AD050E948C015FCFE4E9F1E01382D8
:10143000128288EE93E0A0E0B0E084839583A683D7
:10144000B78384E191E09183808385EC90E0958778
:10145000848784EC90E09787868780EC90E0918B7E
:10146000808B81EC90E0938B828B82EC90E0958B6B
:10147000848B86EC90E0978B868B118E128E138E68
:10148000148E08955058BB27AA270E945A0A0C941C
:10149000D40B0E94C60B38F00E94CD0B20F039F41B
:1014A0009F3F19F426F40C94C30B0EF4E095E7FB70
:1014B0000C94BD0BE92F0E94E50B58F3BA17620795
:1014C00073078407950720F079F4A6F50C94070CB0
:1014D0000EF4E0950B2EBA2FA02D0B01B90190014F
:1014E0000C01CA01A0011124FF27591B99F0593F93
:1014F00050F4503E68F11A16F040A22F232F342FDB
:101500004427585FF3CF469537952795A795F04028
:101510005395C9F77EF41F16BA0B620B730B840B3D
:10152000BAF09150A1F0FF0FBB1F661F771F881FF5
:10153000C2F70EC0BA0F621F731F841F48F487954D
:1015400077956795B795F7959E3F08F0B0CF93953F
:10155000880F08F09927EE0F9795879508950E94B8
:10156000990B08F481E008950E94C80A0C94D40BEA
:101570000E94CD0B58F00E94C60B40F029F45F3F4B
:1015800029F00C94BD0B51110C94080C0C94C30B56
:101590000E94E50B68F39923B1F3552391F3951B52
:1015A000550BBB27AA2762177307840738F09F5F84
:1015B0005F4F220F331F441FAA1FA9F335D00E2EF1
:1015C0003AF0E0E832D091505040E695001CCAF75E
:1015D0002BD0FE2F29D0660F771F881FBB1F261721
:1015E00037074807AB07B0E809F0BB0B802DBF01F8
:1015F000FF2793585F4F3AF09E3F510578F00C94C7
:10160000BD0B0C94080C5F3FE4F3983ED4F3869531
:1016100077956795B795F7959F5FC9F7880F911DE7
:101620009695879597F90895E1E0660F771F881FD3
:10163000BB1F621773078407BA0720F0621B730B86
:10164000840BBA0BEE1F88F7E09508950E942D0BCE
:101650006894B1110C94080C08950E94ED0B88F069
:101660009F5798F0B92F9927B751B0F0E1F0660F66
:10167000771F881F991F1AF0BA95C9F714C0B130A7
:1016800091F00E94070CB1E008950C94070C672FAD
:10169000782F8827B85F39F0B93FCCF386957795D6
:1016A0006795B395D9F73EF49095809570956195BF
:1016B0007F4F8F4F9F4F0895E89409C097FB3EF4EA
:1016C00090958095709561957F4F8F4F9F4F99238F
:1016D000A9F0F92F96E9BB279395F695879577950D
:1016E0006795B795F111F8CFFAF4BB0F11F460FFCD
:1016F0001BC06F5F7F4F8F4F9F4F16C0882311F025
:1017000096E911C0772321F09EE8872F762F05C038
:10171000662371F096E8862F70E060E02AF09A95D3
:10172000660F771F881FDAF7880F9695879597F9C8
:101730000895990F0008550FAA0BE0E8FEEF161662
:101740001706E807F907C0F012161306E407F507B5
:1017500098F0621B730B840B950B39F40A2661F029
:10176000232B242B252B21F408950A2609F4A140CC
:10177000A6958FEF811D811D089597F99F6780E8D9
:1017800070E060E008959FEF80EC089500240A94D3
:101790001616170618060906089500240A9412164C
:1017A0001306140605060895092E0394000C11F47F
:1017B000882352F0BB0F40F4BF2B11F460FF04C02C
:1017C0006F5F7F4F8F4F9F4F089557FD9058440F85
:1017D000551F59F05F3F71F04795880F97FB991F90
:1017E00061F09F3F79F0879508951216130614064D
:1017F000551FF2CF4695F1DF08C0161617061806DA
:10180000991FF1CF86957105610508940895E894B4
:10181000BB2766277727CB0197F908950E94990B7C
:1018200008F48FEF08950E94260C0C94D40B0E94AC
:10183000C60B38F00E94CD0B20F0952311F00C94CC
:10184000BD0B0C94C30B11240C94080C0E94E50BE7
:1018500070F3959FC1F3950F50E0551F629FF00103
:10186000729FBB27F00DB11D639FAA27F00DB11D1C
:10187000AA1F649F6627B00DA11D661F829F2227A5
:10188000B00DA11D621F739FB00DA11D621F839F2C
:10189000A00D611D221F749F3327A00D611D231F02
:1018A000849F600D211D822F762F6A2F11249F5750
:1018B00050409AF0F1F088234AF0EE0FFF1FBB1F53
:1018C000661F771F881F91505040A9F79E3F510512
:1018D00080F00C94BD0B0C94080C5F3FE4F3983E31
:1018E000D4F3869577956795B795F795E7959F5FBC
:1018F000C1F7FE2B880F911D9695879597F908954E
:101900000E94990B880B990B0895A1E21A2EAA1B2D
:10191000BB1BFD010DC0AA1FBB1FEE1FFF1FA2179F
:10192000B307E407F50720F0A21BB30BE40BF50B9C
:10193000661F771F881F991F1A9469F76095709525
:10194000809590959B01AC01BD01CF010895EE0FEC
:10195000FF1F0590F491E02D099481E090E0F89448
:081960000C94B20CF894FFCFC7
:101968000000F0410000F041B302B30200008040E3
:101978000000000023018C00BB006A01EC00CA00D3
:10198800DE006E616E00696E66006F7666002C0080
:041998000D0A000034
:00000001FF
